{
  "_format": "hh-sol-artifact-1",
  "contractName": "Claims",
  "sourceName": "contracts/Claims.sol",
  "abi": [
    {
      "inputs": [
        {
          "internalType": "string",
          "name": "data",
          "type": "string"
        },
        {
          "internalType": "string",
          "name": "target",
          "type": "string"
        }
      ],
      "name": "extractFieldFromContext",
      "outputs": [
        {
          "internalType": "string",
          "name": "",
          "type": "string"
        }
      ],
      "stateMutability": "pure",
      "type": "function"
    }
  ],
  "bytecode": "0x610a59610053600b82828239805160001a607314610046577f4e487b7100000000000000000000000000000000000000000000000000000000600052600060045260246000fd5b30600052607381538281f3fe73000000000000000000000000000000000000000030146080604052600436106100355760003560e01c80633755667e1461003a575b600080fd5b610054600480360381019061004f91906106ae565b61006a565b6040516100619190610776565b60405180910390f35b6060600083905060008390508051825110156100bb576040517f08c379a00000000000000000000000000000000000000000000000000000000081526004016100b290610798565b60405180910390fd5b60008060005b835185516100cf9190610891565b81116102185760006001905060005b8551811080156100eb5750815b156101e457858181518110610129577f4e487b7100000000000000000000000000000000000000000000000000000000600052603260045260246000fd5b602001015160f81c60f81b7effffffffffffffffffffffffffffffffffffffffffffffffffffffffffffff1916878285610163919061083b565b8151811061019a577f4e487b7100000000000000000000000000000000000000000000000000000000600052603260045260246000fd5b602001015160f81c60f81b7effffffffffffffffffffffffffffffffffffffffffffffffffffffffffffff1916146101d157600091505b80806101dc90610942565b9150506100de565b508015610204578451826101f8919061083b565b93506001925050610218565b50808061021090610942565b9150506100c1565b50806102395760405180602001604052806000815250945050505050610640565b60008290505b84518110801561037157507f22000000000000000000000000000000000000000000000000000000000000008582815181106102a4577f4e487b7100000000000000000000000000000000000000000000000000000000600052603260045260246000fd5b602001015160f81c60f81b7effffffffffffffffffffffffffffffffffffffffffffffffffffffffffffff191614801561036f57507f5c00000000000000000000000000000000000000000000000000000000000000856001836103089190610891565b8151811061033f577f4e487b7100000000000000000000000000000000000000000000000000000000600052603260045260246000fd5b602001015160f81c60f81b7effffffffffffffffffffffffffffffffffffffffffffffffffffffffffffff191614155b155b1561038957808061038190610942565b91505061023f565b82811115806104ba57507f22000000000000000000000000000000000000000000000000000000000000008582815181106103ed577f4e487b7100000000000000000000000000000000000000000000000000000000600052603260045260246000fd5b602001015160f81c60f81b7effffffffffffffffffffffffffffffffffffffffffffffffffffffffffffff19161480156104b857507f5c00000000000000000000000000000000000000000000000000000000000000856001836104519190610891565b81518110610488577f4e487b7100000000000000000000000000000000000000000000000000000000600052603260045260246000fd5b602001015160f81c60f81b7effffffffffffffffffffffffffffffffffffffffffffffffffffffffffffff191614155b155b156104db576040518060200160405280600081525095505050505050610640565b600083826104e99190610891565b67ffffffffffffffff811115610528577f4e487b7100000000000000000000000000000000000000000000000000000000600052604160045260246000fd5b6040519080825280601f01601f19166020018201604052801561055a5781602001600182028036833780820191505090505b50905060008490505b82811015610635578681815181106105a4577f4e487b7100000000000000000000000000000000000000000000000000000000600052603260045260246000fd5b602001015160f81c60f81b8286836105bc9190610891565b815181106105f3577f4e487b7100000000000000000000000000000000000000000000000000000000600052603260045260246000fd5b60200101907effffffffffffffffffffffffffffffffffffffffffffffffffffffffffffff1916908160001a905350808061062d90610942565b915050610563565b508096505050505050505b92915050565b6000610659610654846107dd565b6107b8565b90508281526020810184848401111561067157600080fd5b61067c8482856108cf565b509392505050565b600082601f83011261069557600080fd5b81356106a5848260208601610646565b91505092915050565b600080604083850312156106c157600080fd5b600083013567ffffffffffffffff8111156106db57600080fd5b6106e785828601610684565b925050602083013567ffffffffffffffff81111561070457600080fd5b61071085828601610684565b9150509250929050565b60006107258261080e565b61072f818561082a565b935061073f8185602086016108de565b610748816109e9565b840191505092915050565b6000610760601a83610819565b915061076b826109fa565b602082019050919050565b60006020820190508181036000830152610790818461071a565b905092915050565b600060208201905081810360008301526107b181610753565b9050919050565b60006107c26107d3565b90506107ce8282610911565b919050565b6000604051905090565b600067ffffffffffffffff8211156107f8576107f76109ba565b5b610801826109e9565b9050602081019050919050565b600081519050919050565b600082825260208201905092915050565b600082825260208201905092915050565b6000610846826108c5565b9150610851836108c5565b9250827fffffffffffffffffffffffffffffffffffffffffffffffffffffffffffffffff038211156108865761088561098b565b5b828201905092915050565b600061089c826108c5565b91506108a7836108c5565b9250828210156108ba576108b961098b565b5b828203905092915050565b6000819050919050565b82818337600083830152505050565b60005b838110156108fc5780820151818401526020810190506108e1565b8381111561090b576000848401525b50505050565b61091a826109e9565b810181811067ffffffffffffffff82111715610939576109386109ba565b5b80604052505050565b600061094d826108c5565b91507fffffffffffffffffffffffffffffffffffffffffffffffffffffffffffffffff8214156109805761097f61098b565b5b600182019050919050565b7f4e487b7100000000000000000000000000000000000000000000000000000000600052601160045260246000fd5b7f4e487b7100000000000000000000000000000000000000000000000000000000600052604160045260246000fd5b6000601f19601f8301169050919050565b7f746172676574206973206c6f6e676572207468616e206461746100000000000060008201525056fea2646970667358221220f0730562043435cc74c07dca81b396c424112f330774723dfb6480d24322b9ff64736f6c63430008040033",
  "linkReferences": {},
  "deployedLinkReferences": {}
}