{
  "_format": "hh-sol-artifact-1",
  "contractName": "Attestor",
  "sourceName": "contracts/Attestor.sol",
  "abi": [
    {
      "inputs": [
        {
          "internalType": "address",
          "name": "_reclaimAddress",
          "type": "address"
        }
      ],
      "stateMutability": "nonpayable",
      "type": "constructor"
    },
    {
      "inputs": [
        {
          "components": [
            {
              "components": [
                {
                  "internalType": "string",
                  "name": "provider",
                  "type": "string"
                },
                {
                  "internalType": "string",
                  "name": "parameters",
                  "type": "string"
                },
                {
                  "internalType": "string",
                  "name": "context",
                  "type": "string"
                }
              ],
              "internalType": "struct Claims.ClaimInfo",
              "name": "claimInfo",
              "type": "tuple"
            },
            {
              "components": [
                {
                  "components": [
                    {
                      "internalType": "bytes32",
                      "name": "identifier",
                      "type": "bytes32"
                    },
                    {
                      "internalType": "address",
                      "name": "owner",
                      "type": "address"
                    },
                    {
                      "internalType": "uint32",
                      "name": "timestampS",
                      "type": "uint32"
                    },
                    {
                      "internalType": "uint32",
                      "name": "epoch",
                      "type": "uint32"
                    }
                  ],
                  "internalType": "struct Claims.CompleteClaimData",
                  "name": "claim",
                  "type": "tuple"
                },
                {
                  "internalType": "bytes[]",
                  "name": "signatures",
                  "type": "bytes[]"
                }
              ],
              "internalType": "struct Claims.SignedClaim",
              "name": "signedClaim",
              "type": "tuple"
            }
          ],
          "internalType": "struct Reclaim.Proof",
          "name": "proof",
          "type": "tuple"
        }
      ],
      "name": "verifyProof",
      "outputs": [],
      "stateMutability": "view",
      "type": "function"
    }
  ],
  "bytecode": "0x608060405234801561001057600080fd5b50604051610afe380380610afe8339818101604052810190610032919061008d565b806000806101000a81548173ffffffffffffffffffffffffffffffffffffffff021916908373ffffffffffffffffffffffffffffffffffffffff160217905550506100ff565b600081519050610087816100e8565b92915050565b60006020828403121561009f57600080fd5b60006100ad84828501610078565b91505092915050565b60006100c1826100c8565b9050919050565b600073ffffffffffffffffffffffffffffffffffffffff82169050919050565b6100f1816100b6565b81146100fc57600080fd5b50565b6109f08061010e6000396000f3fe608060405234801561001057600080fd5b506004361061002b5760003560e01c8063a960e69e14610030575b600080fd5b61004a60048036038101906100459190610493565b61004c565b005b60008054906101000a900473ffffffffffffffffffffffffffffffffffffffff1673ffffffffffffffffffffffffffffffffffffffff1663a960e69e826040518263ffffffff1660e01b81526004016100a59190610730565b60006040518083038186803b1580156100bd57600080fd5b505afa1580156100d1573d6000803e3d6000fd5b5050505050565b60006100eb6100e684610777565b610752565b9050808382526020820190508285602086028201111561010a57600080fd5b60005b8581101561015457813567ffffffffffffffff81111561012c57600080fd5b808601610139898261022e565b8552602085019450602084019350505060018101905061010d565b5050509392505050565b600061017161016c846107a3565b610752565b90508281526020810184848401111561018957600080fd5b6101948482856108c2565b509392505050565b60006101af6101aa846107d4565b610752565b9050828152602081018484840111156101c757600080fd5b6101d28482856108c2565b509392505050565b6000813590506101e981610975565b92915050565b600082601f83011261020057600080fd5b81356102108482602086016100d8565b91505092915050565b6000813590506102288161098c565b92915050565b600082601f83011261023f57600080fd5b813561024f84826020860161015e565b91505092915050565b600082601f83011261026957600080fd5b813561027984826020860161019c565b91505092915050565b60006060828403121561029457600080fd5b61029e6060610752565b9050600082013567ffffffffffffffff8111156102ba57600080fd5b6102c684828501610258565b600083015250602082013567ffffffffffffffff8111156102e657600080fd5b6102f284828501610258565b602083015250604082013567ffffffffffffffff81111561031257600080fd5b61031e84828501610258565b60408301525092915050565b60006080828403121561033c57600080fd5b6103466080610752565b9050600061035684828501610219565b600083015250602061036a848285016101da565b602083015250604061037e8482850161047e565b60408301525060606103928482850161047e565b60608301525092915050565b6000604082840312156103b057600080fd5b6103ba6040610752565b9050600082013567ffffffffffffffff8111156103d657600080fd5b6103e284828501610282565b600083015250602082013567ffffffffffffffff81111561040257600080fd5b61040e8482850161041a565b60208301525092915050565b600060a0828403121561042c57600080fd5b6104366040610752565b905060006104468482850161032a565b600083015250608082013567ffffffffffffffff81111561046657600080fd5b610472848285016101ef565b60208301525092915050565b60008135905061048d816109a3565b92915050565b6000602082840312156104a557600080fd5b600082013567ffffffffffffffff8111156104bf57600080fd5b6104cb8482850161039e565b91505092915050565b60006104e0838361057b565b905092915050565b6104f181610876565b82525050565b600061050282610815565b61050c8185610843565b93508360208202850161051e85610805565b8060005b8581101561055a578484038952815161053b85826104d4565b945061054683610836565b925060208a01995050600181019050610522565b50829750879550505050505092915050565b61057581610888565b82525050565b600061058682610820565b6105908185610854565b93506105a08185602086016108d1565b6105a981610964565b840191505092915050565b60006105bf8261082b565b6105c98185610865565b93506105d98185602086016108d1565b6105e281610964565b840191505092915050565b6000606083016000830151848203600086015261060a82826105b4565b9150506020830151848203602086015261062482826105b4565b9150506040830151848203604086015261063e82826105b4565b9150508091505092915050565b608082016000820151610661600085018261056c565b50602082015161067460208501826104e8565b5060408201516106876040850182610721565b50606082015161069a6060850182610721565b50505050565b600060408301600083015184820360008601526106bd82826105ed565b915050602083015184820360208601526106d782826106e4565b9150508091505092915050565b600060a0830160008301516106fc600086018261064b565b506020830151848203608086015261071482826104f7565b9150508091505092915050565b61072a816108b2565b82525050565b6000602082019050818103600083015261074a81846106a0565b905092915050565b600061075c61076d565b90506107688282610904565b919050565b6000604051905090565b600067ffffffffffffffff82111561079257610791610935565b5b602082029050602081019050919050565b600067ffffffffffffffff8211156107be576107bd610935565b5b6107c782610964565b9050602081019050919050565b600067ffffffffffffffff8211156107ef576107ee610935565b5b6107f882610964565b9050602081019050919050565b6000819050602082019050919050565b600081519050919050565b600081519050919050565b600081519050919050565b6000602082019050919050565b600082825260208201905092915050565b600082825260208201905092915050565b600082825260208201905092915050565b600061088182610892565b9050919050565b6000819050919050565b600073ffffffffffffffffffffffffffffffffffffffff82169050919050565b600063ffffffff82169050919050565b82818337600083830152505050565b60005b838110156108ef5780820151818401526020810190506108d4565b838111156108fe576000848401525b50505050565b61090d82610964565b810181811067ffffffffffffffff8211171561092c5761092b610935565b5b80604052505050565b7f4e487b7100000000000000000000000000000000000000000000000000000000600052604160045260246000fd5b6000601f19601f8301169050919050565b61097e81610876565b811461098957600080fd5b50565b61099581610888565b81146109a057600080fd5b50565b6109ac816108b2565b81146109b757600080fd5b5056fea26469706673582212205c75db13c863f3bca50c4a100e28856bd937cabf6c85ad152c12918b9c169d9f64736f6c63430008040033",
  "linkReferences": {},
  "deployedLinkReferences": {}
}