{
  "_format": "hh-sol-artifact-1",
  "contractName": "Attestor",
  "sourceName": "contracts/Attestor.sol",
  "abi": [
    {
      "inputs": [
        {
          "internalType": "address",
          "name": "_reclaimAddress",
          "type": "address"
        }
      ],
      "stateMutability": "nonpayable",
      "type": "constructor"
    },
    {
      "anonymous": false,
      "inputs": [
        {
          "indexed": true,
          "internalType": "address",
          "name": "account",
          "type": "address"
        },
        {
          "indexed": true,
          "internalType": "address",
          "name": "operator",
          "type": "address"
        },
        {
          "indexed": false,
          "internalType": "bool",
          "name": "approved",
          "type": "bool"
        }
      ],
      "name": "ApprovalForAll",
      "type": "event"
    },
    {
      "anonymous": false,
      "inputs": [
        {
          "indexed": true,
          "internalType": "address",
          "name": "previousOwner",
          "type": "address"
        },
        {
          "indexed": true,
          "internalType": "address",
          "name": "newOwner",
          "type": "address"
        }
      ],
      "name": "OwnershipTransferred",
      "type": "event"
    },
    {
      "anonymous": false,
      "inputs": [
        {
          "indexed": true,
          "internalType": "address",
          "name": "operator",
          "type": "address"
        },
        {
          "indexed": true,
          "internalType": "address",
          "name": "from",
          "type": "address"
        },
        {
          "indexed": true,
          "internalType": "address",
          "name": "to",
          "type": "address"
        },
        {
          "indexed": false,
          "internalType": "uint256[]",
          "name": "ids",
          "type": "uint256[]"
        },
        {
          "indexed": false,
          "internalType": "uint256[]",
          "name": "values",
          "type": "uint256[]"
        }
      ],
      "name": "TransferBatch",
      "type": "event"
    },
    {
      "anonymous": false,
      "inputs": [
        {
          "indexed": true,
          "internalType": "address",
          "name": "operator",
          "type": "address"
        },
        {
          "indexed": true,
          "internalType": "address",
          "name": "from",
          "type": "address"
        },
        {
          "indexed": true,
          "internalType": "address",
          "name": "to",
          "type": "address"
        },
        {
          "indexed": false,
          "internalType": "uint256",
          "name": "id",
          "type": "uint256"
        },
        {
          "indexed": false,
          "internalType": "uint256",
          "name": "value",
          "type": "uint256"
        }
      ],
      "name": "TransferSingle",
      "type": "event"
    },
    {
      "anonymous": false,
      "inputs": [
        {
          "indexed": false,
          "internalType": "string",
          "name": "value",
          "type": "string"
        },
        {
          "indexed": true,
          "internalType": "uint256",
          "name": "id",
          "type": "uint256"
        }
      ],
      "name": "URI",
      "type": "event"
    },
    {
      "inputs": [
        {
          "internalType": "uint256",
          "name": "",
          "type": "uint256"
        }
      ],
      "name": "_URIs",
      "outputs": [
        {
          "internalType": "string",
          "name": "",
          "type": "string"
        }
      ],
      "stateMutability": "view",
      "type": "function"
    },
    {
      "inputs": [],
      "name": "_baseURI",
      "outputs": [
        {
          "internalType": "string",
          "name": "",
          "type": "string"
        }
      ],
      "stateMutability": "view",
      "type": "function"
    },
    {
      "inputs": [
        {
          "internalType": "address",
          "name": "account",
          "type": "address"
        },
        {
          "internalType": "uint256",
          "name": "id",
          "type": "uint256"
        }
      ],
      "name": "balanceOf",
      "outputs": [
        {
          "internalType": "uint256",
          "name": "",
          "type": "uint256"
        }
      ],
      "stateMutability": "view",
      "type": "function"
    },
    {
      "inputs": [
        {
          "internalType": "address[]",
          "name": "accounts",
          "type": "address[]"
        },
        {
          "internalType": "uint256[]",
          "name": "ids",
          "type": "uint256[]"
        }
      ],
      "name": "balanceOfBatch",
      "outputs": [
        {
          "internalType": "uint256[]",
          "name": "",
          "type": "uint256[]"
        }
      ],
      "stateMutability": "view",
      "type": "function"
    },
    {
      "inputs": [
        {
          "internalType": "address",
          "name": "account",
          "type": "address"
        },
        {
          "internalType": "address",
          "name": "operator",
          "type": "address"
        }
      ],
      "name": "isApprovedForAll",
      "outputs": [
        {
          "internalType": "bool",
          "name": "",
          "type": "bool"
        }
      ],
      "stateMutability": "view",
      "type": "function"
    },
    {
      "inputs": [
        {
          "internalType": "address",
          "name": "account",
          "type": "address"
        },
        {
          "internalType": "uint256",
          "name": "id",
          "type": "uint256"
        },
        {
          "internalType": "bytes",
          "name": "data",
          "type": "bytes"
        },
        {
          "components": [
            {
              "components": [
                {
                  "internalType": "string",
                  "name": "provider",
                  "type": "string"
                },
                {
                  "internalType": "string",
                  "name": "parameters",
                  "type": "string"
                },
                {
                  "internalType": "string",
                  "name": "context",
                  "type": "string"
                }
              ],
              "internalType": "struct Claims.ClaimInfo",
              "name": "claimInfo",
              "type": "tuple"
            },
            {
              "components": [
                {
                  "components": [
                    {
                      "internalType": "bytes32",
                      "name": "identifier",
                      "type": "bytes32"
                    },
                    {
                      "internalType": "address",
                      "name": "owner",
                      "type": "address"
                    },
                    {
                      "internalType": "uint32",
                      "name": "timestampS",
                      "type": "uint32"
                    },
                    {
                      "internalType": "uint32",
                      "name": "epoch",
                      "type": "uint32"
                    }
                  ],
                  "internalType": "struct Claims.CompleteClaimData",
                  "name": "claim",
                  "type": "tuple"
                },
                {
                  "internalType": "bytes[]",
                  "name": "signatures",
                  "type": "bytes[]"
                }
              ],
              "internalType": "struct Claims.SignedClaim",
              "name": "signedClaim",
              "type": "tuple"
            }
          ],
          "internalType": "struct Reclaim.Proof",
          "name": "proof",
          "type": "tuple"
        }
      ],
      "name": "mint",
      "outputs": [],
      "stateMutability": "nonpayable",
      "type": "function"
    },
    {
      "inputs": [],
      "name": "owner",
      "outputs": [
        {
          "internalType": "address",
          "name": "",
          "type": "address"
        }
      ],
      "stateMutability": "view",
      "type": "function"
    },
    {
      "inputs": [],
      "name": "renounceOwnership",
      "outputs": [],
      "stateMutability": "nonpayable",
      "type": "function"
    },
    {
      "inputs": [
        {
          "internalType": "address",
          "name": "from",
          "type": "address"
        },
        {
          "internalType": "address",
          "name": "to",
          "type": "address"
        },
        {
          "internalType": "uint256[]",
          "name": "ids",
          "type": "uint256[]"
        },
        {
          "internalType": "uint256[]",
          "name": "amounts",
          "type": "uint256[]"
        },
        {
          "internalType": "bytes",
          "name": "data",
          "type": "bytes"
        }
      ],
      "name": "safeBatchTransferFrom",
      "outputs": [],
      "stateMutability": "nonpayable",
      "type": "function"
    },
    {
      "inputs": [
        {
          "internalType": "address",
          "name": "from",
          "type": "address"
        },
        {
          "internalType": "address",
          "name": "to",
          "type": "address"
        },
        {
          "internalType": "uint256",
          "name": "id",
          "type": "uint256"
        },
        {
          "internalType": "uint256",
          "name": "amount",
          "type": "uint256"
        },
        {
          "internalType": "bytes",
          "name": "data",
          "type": "bytes"
        }
      ],
      "name": "safeTransferFrom",
      "outputs": [],
      "stateMutability": "nonpayable",
      "type": "function"
    },
    {
      "inputs": [
        {
          "internalType": "address",
          "name": "operator",
          "type": "address"
        },
        {
          "internalType": "bool",
          "name": "approved",
          "type": "bool"
        }
      ],
      "name": "setApprovalForAll",
      "outputs": [],
      "stateMutability": "nonpayable",
      "type": "function"
    },
    {
      "inputs": [
        {
          "internalType": "string",
          "name": "newuri",
          "type": "string"
        }
      ],
      "name": "setBaseURI",
      "outputs": [],
      "stateMutability": "nonpayable",
      "type": "function"
    },
    {
      "inputs": [
        {
          "internalType": "uint256",
          "name": "tokenId",
          "type": "uint256"
        },
        {
          "internalType": "string",
          "name": "newuri",
          "type": "string"
        }
      ],
      "name": "setTokenURI",
      "outputs": [],
      "stateMutability": "nonpayable",
      "type": "function"
    },
    {
      "inputs": [
        {
          "internalType": "bytes4",
          "name": "interfaceId",
          "type": "bytes4"
        }
      ],
      "name": "supportsInterface",
      "outputs": [
        {
          "internalType": "bool",
          "name": "",
          "type": "bool"
        }
      ],
      "stateMutability": "view",
      "type": "function"
    },
    {
      "inputs": [
        {
          "internalType": "address",
          "name": "newOwner",
          "type": "address"
        }
      ],
      "name": "transferOwnership",
      "outputs": [],
      "stateMutability": "nonpayable",
      "type": "function"
    },
    {
      "inputs": [
        {
          "internalType": "uint256",
          "name": "tokenId",
          "type": "uint256"
        }
      ],
      "name": "uri",
      "outputs": [
        {
          "internalType": "string",
          "name": "",
          "type": "string"
        }
      ],
      "stateMutability": "view",
      "type": "function"
    },
    {
      "inputs": [
        {
          "components": [
            {
              "components": [
                {
                  "internalType": "string",
                  "name": "provider",
                  "type": "string"
                },
                {
                  "internalType": "string",
                  "name": "parameters",
                  "type": "string"
                },
                {
                  "internalType": "string",
                  "name": "context",
                  "type": "string"
                }
              ],
              "internalType": "struct Claims.ClaimInfo",
              "name": "claimInfo",
              "type": "tuple"
            },
            {
              "components": [
                {
                  "components": [
                    {
                      "internalType": "bytes32",
                      "name": "identifier",
                      "type": "bytes32"
                    },
                    {
                      "internalType": "address",
                      "name": "owner",
                      "type": "address"
                    },
                    {
                      "internalType": "uint32",
                      "name": "timestampS",
                      "type": "uint32"
                    },
                    {
                      "internalType": "uint32",
                      "name": "epoch",
                      "type": "uint32"
                    }
                  ],
                  "internalType": "struct Claims.CompleteClaimData",
                  "name": "claim",
                  "type": "tuple"
                },
                {
                  "internalType": "bytes[]",
                  "name": "signatures",
                  "type": "bytes[]"
                }
              ],
              "internalType": "struct Claims.SignedClaim",
              "name": "signedClaim",
              "type": "tuple"
            }
          ],
          "internalType": "struct Reclaim.Proof",
          "name": "proof",
          "type": "tuple"
        }
      ],
      "name": "verifyProof",
      "outputs": [],
      "stateMutability": "view",
      "type": "function"
    }
  ],
  "bytecode": "0x60806040523480156200001157600080fd5b5060405162003c4638038062003c46833981810160405281019062000037919062000272565b604051806020016040528060008152506200005881620000c160201b60201c565b50620000796200006d620000dd60201b60201c565b620000e560201b60201c565b80600460006101000a81548173ffffffffffffffffffffffffffffffffffffffff021916908373ffffffffffffffffffffffffffffffffffffffff1602179055505062000351565b8060029080519060200190620000d9929190620001ab565b5050565b600033905090565b6000600360009054906101000a900473ffffffffffffffffffffffffffffffffffffffff16905081600360006101000a81548173ffffffffffffffffffffffffffffffffffffffff021916908373ffffffffffffffffffffffffffffffffffffffff1602179055508173ffffffffffffffffffffffffffffffffffffffff168173ffffffffffffffffffffffffffffffffffffffff167f8be0079c531659141344cd1fd0a4f28419497f9722a3daafe3b4186f6b6457e060405160405180910390a35050565b828054620001b990620002d2565b90600052602060002090601f016020900481019282620001dd576000855562000229565b82601f10620001f857805160ff191683800117855562000229565b8280016001018555821562000229579182015b82811115620002285782518255916020019190600101906200020b565b5b5090506200023891906200023c565b5090565b5b80821115620002575760008160009055506001016200023d565b5090565b6000815190506200026c8162000337565b92915050565b6000602082840312156200028557600080fd5b600062000295848285016200025b565b91505092915050565b6000620002ab82620002b2565b9050919050565b600073ffffffffffffffffffffffffffffffffffffffff82169050919050565b60006002820490506001821680620002eb57607f821691505b6020821081141562000302576200030162000308565b5b50919050565b7f4e487b7100000000000000000000000000000000000000000000000000000000600052602260045260246000fd5b62000342816200029e565b81146200034e57600080fd5b50565b6138e580620003616000396000f3fe608060405234801561001057600080fd5b506004361061010a5760003560e01c806355f804b3116100a2578063a22cb46511610071578063a22cb465146102b5578063a960e69e146102d1578063e985e9c5146102ed578063f242432a1461031d578063f2fde38b146103395761010a565b806355f804b314610253578063715018a61461026f578063743976a0146102795780638da5cb5b146102975761010a565b8063295eb9da116100de578063295eb9da146101bb5780632d8ed2c0146101d75780632eb2c2d6146102075780634e1273f4146102235761010a565b8062fdd58e1461010f57806301ffc9a71461013f5780630e89341c1461016f578063162094c41461019f575b600080fd5b610129600480360381019061012491906123bf565b610355565b6040516101369190612f27565b60405180910390f35b610159600480360381019061015491906124fa565b61041e565b6040516101669190612d48565b60405180910390f35b610189600480360381019061018491906125ce565b610500565b6040516101969190612d63565b60405180910390f35b6101b960048036038101906101b491906125f7565b61053e565b005b6101d560048036038101906101d091906123fb565b610572565b005b6101f160048036038101906101ec91906125ce565b610610565b6040516101fe9190612d63565b60405180910390f35b610221600480360381019061021c9190612235565b6106b0565b005b61023d6004803603810190610238919061248e565b610751565b60405161024a9190612cef565b60405180910390f35b61026d6004803603810190610268919061254c565b610902565b005b610277610924565b005b610281610938565b60405161028e9190612d63565b60405180910390f35b61029f6109c6565b6040516102ac9190612c12565b60405180910390f35b6102cf60048036038101906102ca9190612383565b6109f0565b005b6102eb60048036038101906102e6919061258d565b610a06565b005b610307600480360381019061030291906121f9565b610a94565b6040516103149190612d48565b60405180910390f35b610337600480360381019061033291906122f4565b610b28565b005b610353600480360381019061034e91906121d0565b610bc9565b005b60008073ffffffffffffffffffffffffffffffffffffffff168373ffffffffffffffffffffffffffffffffffffffff1614156103c6576040517f08c379a00000000000000000000000000000000000000000000000000000000081526004016103bd90612dc5565b60405180910390fd5b60008083815260200190815260200160002060008473ffffffffffffffffffffffffffffffffffffffff1673ffffffffffffffffffffffffffffffffffffffff16815260200190815260200160002054905092915050565b60007fd9b67a26000000000000000000000000000000000000000000000000000000007bffffffffffffffffffffffffffffffffffffffffffffffffffffffff1916827bffffffffffffffffffffffffffffffffffffffffffffffffffffffff191614806104e957507f0e89341c000000000000000000000000000000000000000000000000000000007bffffffffffffffffffffffffffffffffffffffffffffffffffffffff1916827bffffffffffffffffffffffffffffffffffffffffffffffffffffffff1916145b806104f957506104f882610c4d565b5b9050919050565b6060600560066000848152602001908152602001600020604051602001610528929190612bee565b6040516020818303038152906040529050919050565b610546610cb7565b8060066000848152602001908152602001600020908051906020019061056d929190611bf2565b505050565b600460009054906101000a900473ffffffffffffffffffffffffffffffffffffffff1673ffffffffffffffffffffffffffffffffffffffff1663a960e69e826040518263ffffffff1660e01b81526004016105cd9190612f05565b60006040518083038186803b1580156105e557600080fd5b505afa1580156105f9573d6000803e3d6000fd5b5050505061060a8484600185610d35565b50505050565b6006602052806000526040600020600091509050805461062f90613288565b80601f016020809104026020016040519081016040528092919081815260200182805461065b90613288565b80156106a85780601f1061067d576101008083540402835291602001916106a8565b820191906000526020600020905b81548152906001019060200180831161068b57829003601f168201915b505050505081565b6106b8610ee6565b73ffffffffffffffffffffffffffffffffffffffff168573ffffffffffffffffffffffffffffffffffffffff1614806106fe57506106fd856106f8610ee6565b610a94565b5b61073d576040517f08c379a000000000000000000000000000000000000000000000000000000000815260040161073490612de5565b60405180910390fd5b61074a8585858585610eee565b5050505050565b60608151835114610797576040517f08c379a000000000000000000000000000000000000000000000000000000000815260040161078e90612e85565b60405180910390fd5b6000835167ffffffffffffffff8111156107da577f4e487b7100000000000000000000000000000000000000000000000000000000600052604160045260246000fd5b6040519080825280602002602001820160405280156108085781602001602082028036833780820191505090505b50905060005b84518110156108f7576108a1858281518110610853577f4e487b7100000000000000000000000000000000000000000000000000000000600052603260045260246000fd5b6020026020010151858381518110610894577f4e487b7100000000000000000000000000000000000000000000000000000000600052603260045260246000fd5b6020026020010151610355565b8282815181106108da577f4e487b7100000000000000000000000000000000000000000000000000000000600052603260045260246000fd5b602002602001018181525050806108f0906132eb565b905061080e565b508091505092915050565b61090a610cb7565b8060059080519060200190610920929190611bf2565b5050565b61092c610cb7565b610936600061125c565b565b6005805461094590613288565b80601f016020809104026020016040519081016040528092919081815260200182805461097190613288565b80156109be5780601f10610993576101008083540402835291602001916109be565b820191906000526020600020905b8154815290600101906020018083116109a157829003601f168201915b505050505081565b6000600360009054906101000a900473ffffffffffffffffffffffffffffffffffffffff16905090565b610a026109fb610ee6565b8383611322565b5050565b600460009054906101000a900473ffffffffffffffffffffffffffffffffffffffff1673ffffffffffffffffffffffffffffffffffffffff1663a960e69e826040518263ffffffff1660e01b8152600401610a619190612f05565b60006040518083038186803b158015610a7957600080fd5b505afa158015610a8d573d6000803e3d6000fd5b5050505050565b6000600160008473ffffffffffffffffffffffffffffffffffffffff1673ffffffffffffffffffffffffffffffffffffffff16815260200190815260200160002060008373ffffffffffffffffffffffffffffffffffffffff1673ffffffffffffffffffffffffffffffffffffffff16815260200190815260200160002060009054906101000a900460ff16905092915050565b610b30610ee6565b73ffffffffffffffffffffffffffffffffffffffff168573ffffffffffffffffffffffffffffffffffffffff161480610b765750610b7585610b70610ee6565b610a94565b5b610bb5576040517f08c379a0000000000000000000000000000000000000000000000000000000008152600401610bac90612de5565b60405180910390fd5b610bc2858585858561148f565b5050505050565b610bd1610cb7565b600073ffffffffffffffffffffffffffffffffffffffff168173ffffffffffffffffffffffffffffffffffffffff161415610c41576040517f08c379a0000000000000000000000000000000000000000000000000000000008152600401610c3890612da5565b60405180910390fd5b610c4a8161125c565b50565b60007f01ffc9a7000000000000000000000000000000000000000000000000000000007bffffffffffffffffffffffffffffffffffffffffffffffffffffffff1916827bffffffffffffffffffffffffffffffffffffffffffffffffffffffff1916149050919050565b610cbf610ee6565b73ffffffffffffffffffffffffffffffffffffffff16610cdd6109c6565b73ffffffffffffffffffffffffffffffffffffffff1614610d33576040517f08c379a0000000000000000000000000000000000000000000000000000000008152600401610d2a90612e45565b60405180910390fd5b565b600073ffffffffffffffffffffffffffffffffffffffff168473ffffffffffffffffffffffffffffffffffffffff161415610da5576040517f08c379a0000000000000000000000000000000000000000000000000000000008152600401610d9c90612ec5565b60405180910390fd5b6000610daf610ee6565b90506000610dbc8561172b565b90506000610dc98561172b565b9050610dda836000898585896117f1565b8460008088815260200190815260200160002060008973ffffffffffffffffffffffffffffffffffffffff1673ffffffffffffffffffffffffffffffffffffffff1681526020019081526020016000206000828254610e399190613162565b925050819055508673ffffffffffffffffffffffffffffffffffffffff16600073ffffffffffffffffffffffffffffffffffffffff168473ffffffffffffffffffffffffffffffffffffffff167fc3d58168c5ae7397731d063d5bbf3d657854427343f4c083240f7aacaa2d0f628989604051610eb7929190612f42565b60405180910390a4610ece836000898585896117f9565b610edd83600089898989611801565b50505050505050565b600033905090565b8151835114610f32576040517f08c379a0000000000000000000000000000000000000000000000000000000008152600401610f2990612ea5565b60405180910390fd5b600073ffffffffffffffffffffffffffffffffffffffff168473ffffffffffffffffffffffffffffffffffffffff161415610fa2576040517f08c379a0000000000000000000000000000000000000000000000000000000008152600401610f9990612e05565b60405180910390fd5b6000610fac610ee6565b9050610fbc8187878787876117f1565b60005b84518110156111b9576000858281518110611003577f4e487b7100000000000000000000000000000000000000000000000000000000600052603260045260246000fd5b602002602001015190506000858381518110611048577f4e487b7100000000000000000000000000000000000000000000000000000000600052603260045260246000fd5b60200260200101519050600080600084815260200190815260200160002060008b73ffffffffffffffffffffffffffffffffffffffff1673ffffffffffffffffffffffffffffffffffffffff168152602001908152602001600020549050818110156110e9576040517f08c379a00000000000000000000000000000000000000000000000000000000081526004016110e090612e25565b60405180910390fd5b81810360008085815260200190815260200160002060008c73ffffffffffffffffffffffffffffffffffffffff1673ffffffffffffffffffffffffffffffffffffffff168152602001908152602001600020819055508160008085815260200190815260200160002060008b73ffffffffffffffffffffffffffffffffffffffff1673ffffffffffffffffffffffffffffffffffffffff168152602001908152602001600020600082825461119e9190613162565b92505081905550505050806111b2906132eb565b9050610fbf565b508473ffffffffffffffffffffffffffffffffffffffff168673ffffffffffffffffffffffffffffffffffffffff168273ffffffffffffffffffffffffffffffffffffffff167f4a39dc06d4c0dbc64b70af90fd698a233a518aa5d07e595d983b8c0526c8f7fb8787604051611230929190612d11565b60405180910390a46112468187878787876117f9565b6112548187878787876119e8565b505050505050565b6000600360009054906101000a900473ffffffffffffffffffffffffffffffffffffffff16905081600360006101000a81548173ffffffffffffffffffffffffffffffffffffffff021916908373ffffffffffffffffffffffffffffffffffffffff1602179055508173ffffffffffffffffffffffffffffffffffffffff168173ffffffffffffffffffffffffffffffffffffffff167f8be0079c531659141344cd1fd0a4f28419497f9722a3daafe3b4186f6b6457e060405160405180910390a35050565b8173ffffffffffffffffffffffffffffffffffffffff168373ffffffffffffffffffffffffffffffffffffffff161415611391576040517f08c379a000000000000000000000000000000000000000000000000000000000815260040161138890612e65565b60405180910390fd5b80600160008573ffffffffffffffffffffffffffffffffffffffff1673ffffffffffffffffffffffffffffffffffffffff16815260200190815260200160002060008473ffffffffffffffffffffffffffffffffffffffff1673ffffffffffffffffffffffffffffffffffffffff16815260200190815260200160002060006101000a81548160ff0219169083151502179055508173ffffffffffffffffffffffffffffffffffffffff168373ffffffffffffffffffffffffffffffffffffffff167f17307eab39ab6107e8899845ad3d59bd9653f200f220920489ca2b5937696c31836040516114829190612d48565b60405180910390a3505050565b600073ffffffffffffffffffffffffffffffffffffffff168473ffffffffffffffffffffffffffffffffffffffff1614156114ff576040517f08c379a00000000000000000000000000000000000000000000000000000000081526004016114f690612e05565b60405180910390fd5b6000611509610ee6565b905060006115168561172b565b905060006115238561172b565b90506115338389898585896117f1565b600080600088815260200190815260200160002060008a73ffffffffffffffffffffffffffffffffffffffff1673ffffffffffffffffffffffffffffffffffffffff168152602001908152602001600020549050858110156115ca576040517f08c379a00000000000000000000000000000000000000000000000000000000081526004016115c190612e25565b60405180910390fd5b85810360008089815260200190815260200160002060008b73ffffffffffffffffffffffffffffffffffffffff1673ffffffffffffffffffffffffffffffffffffffff168152602001908152602001600020819055508560008089815260200190815260200160002060008a73ffffffffffffffffffffffffffffffffffffffff1673ffffffffffffffffffffffffffffffffffffffff168152602001908152602001600020600082825461167f9190613162565b925050819055508773ffffffffffffffffffffffffffffffffffffffff168973ffffffffffffffffffffffffffffffffffffffff168573ffffffffffffffffffffffffffffffffffffffff167fc3d58168c5ae7397731d063d5bbf3d657854427343f4c083240f7aacaa2d0f628a8a6040516116fc929190612f42565b60405180910390a4611712848a8a86868a6117f9565b611720848a8a8a8a8a611801565b505050505050505050565b60606000600167ffffffffffffffff811115611770577f4e487b7100000000000000000000000000000000000000000000000000000000600052604160045260246000fd5b60405190808252806020026020018201604052801561179e5781602001602082028036833780820191505090505b50905082816000815181106117dc577f4e487b7100000000000000000000000000000000000000000000000000000000600052603260045260246000fd5b60200260200101818152505080915050919050565b505050505050565b505050505050565b6118208473ffffffffffffffffffffffffffffffffffffffff16611bcf565b156119e0578373ffffffffffffffffffffffffffffffffffffffff1663f23a6e6187878686866040518663ffffffff1660e01b8152600401611866959493929190612c95565b602060405180830381600087803b15801561188057600080fd5b505af19250505080156118b157506040513d601f19601f820116820180604052508101906118ae9190612523565b60015b611957576118bd6133c1565b806308c379a0141561191a57506118d261378f565b806118dd575061191c565b806040517f08c379a00000000000000000000000000000000000000000000000000000000081526004016119119190612d63565b60405180910390fd5b505b6040517f08c379a000000000000000000000000000000000000000000000000000000000815260040161194e90612ee5565b60405180910390fd5b63f23a6e6160e01b7bffffffffffffffffffffffffffffffffffffffffffffffffffffffff1916817bffffffffffffffffffffffffffffffffffffffffffffffffffffffff1916146119de576040517f08c379a00000000000000000000000000000000000000000000000000000000081526004016119d590612d85565b60405180910390fd5b505b505050505050565b611a078473ffffffffffffffffffffffffffffffffffffffff16611bcf565b15611bc7578373ffffffffffffffffffffffffffffffffffffffff1663bc197c8187878686866040518663ffffffff1660e01b8152600401611a4d959493929190612c2d565b602060405180830381600087803b158015611a6757600080fd5b505af1925050508015611a9857506040513d601f19601f82011682018060405250810190611a959190612523565b60015b611b3e57611aa46133c1565b806308c379a01415611b015750611ab961378f565b80611ac45750611b03565b806040517f08c379a0000000000000000000000000000000000000000000000000000000008152600401611af89190612d63565b60405180910390fd5b505b6040517f08c379a0000000000000000000000000000000000000000000000000000000008152600401611b3590612ee5565b60405180910390fd5b63bc197c8160e01b7bffffffffffffffffffffffffffffffffffffffffffffffffffffffff1916817bffffffffffffffffffffffffffffffffffffffffffffffffffffffff191614611bc5576040517f08c379a0000000000000000000000000000000000000000000000000000000008152600401611bbc90612d85565b60405180910390fd5b505b505050505050565b6000808273ffffffffffffffffffffffffffffffffffffffff163b119050919050565b828054611bfe90613288565b90600052602060002090601f016020900481019282611c205760008555611c67565b82601f10611c3957805160ff1916838001178555611c67565b82800160010185558215611c67579182015b82811115611c66578251825591602001919060010190611c4b565b5b509050611c749190611c78565b5090565b5b80821115611c91576000816000905550600101611c79565b5090565b6000611ca8611ca384612f90565b612f6b565b90508083825260208201905082856020860282011115611cc757600080fd5b60005b85811015611cf75781611cdd8882611e6f565b845260208401935060208301925050600181019050611cca565b5050509392505050565b6000611d14611d0f84612fbc565b612f6b565b90508083825260208201905082856020860282011115611d3357600080fd5b60005b85811015611d7d57813567ffffffffffffffff811115611d5557600080fd5b808601611d628982611f56565b85526020850194506020840193505050600181019050611d36565b5050509392505050565b6000611d9a611d9584612fe8565b612f6b565b90508083825260208201905082856020860282011115611db957600080fd5b60005b85811015611de95781611dcf88826121a6565b845260208401935060208301925050600181019050611dbc565b5050509392505050565b6000611e06611e0184613014565b612f6b565b905082815260208101848484011115611e1e57600080fd5b611e29848285613246565b509392505050565b6000611e44611e3f84613045565b612f6b565b905082815260208101848484011115611e5c57600080fd5b611e67848285613246565b509392505050565b600081359050611e7e81613825565b92915050565b600082601f830112611e9557600080fd5b8135611ea5848260208601611c95565b91505092915050565b600082601f830112611ebf57600080fd5b8135611ecf848260208601611d01565b91505092915050565b600082601f830112611ee957600080fd5b8135611ef9848260208601611d87565b91505092915050565b600081359050611f118161383c565b92915050565b600081359050611f2681613853565b92915050565b600081359050611f3b8161386a565b92915050565b600081519050611f508161386a565b92915050565b600082601f830112611f6757600080fd5b8135611f77848260208601611df3565b91505092915050565b600082601f830112611f9157600080fd5b8135611fa1848260208601611e31565b91505092915050565b600060608284031215611fbc57600080fd5b611fc66060612f6b565b9050600082013567ffffffffffffffff811115611fe257600080fd5b611fee84828501611f80565b600083015250602082013567ffffffffffffffff81111561200e57600080fd5b61201a84828501611f80565b602083015250604082013567ffffffffffffffff81111561203a57600080fd5b61204684828501611f80565b60408301525092915050565b60006080828403121561206457600080fd5b61206e6080612f6b565b9050600061207e84828501611f17565b600083015250602061209284828501611e6f565b60208301525060406120a6848285016121bb565b60408301525060606120ba848285016121bb565b60608301525092915050565b6000604082840312156120d857600080fd5b6120e26040612f6b565b9050600082013567ffffffffffffffff8111156120fe57600080fd5b61210a84828501611faa565b600083015250602082013567ffffffffffffffff81111561212a57600080fd5b61213684828501612142565b60208301525092915050565b600060a0828403121561215457600080fd5b61215e6040612f6b565b9050600061216e84828501612052565b600083015250608082013567ffffffffffffffff81111561218e57600080fd5b61219a84828501611eae565b60208301525092915050565b6000813590506121b581613881565b92915050565b6000813590506121ca81613898565b92915050565b6000602082840312156121e257600080fd5b60006121f084828501611e6f565b91505092915050565b6000806040838503121561220c57600080fd5b600061221a85828601611e6f565b925050602061222b85828601611e6f565b9150509250929050565b600080600080600060a0868803121561224d57600080fd5b600061225b88828901611e6f565b955050602061226c88828901611e6f565b945050604086013567ffffffffffffffff81111561228957600080fd5b61229588828901611ed8565b935050606086013567ffffffffffffffff8111156122b257600080fd5b6122be88828901611ed8565b925050608086013567ffffffffffffffff8111156122db57600080fd5b6122e788828901611f56565b9150509295509295909350565b600080600080600060a0868803121561230c57600080fd5b600061231a88828901611e6f565b955050602061232b88828901611e6f565b945050604061233c888289016121a6565b935050606061234d888289016121a6565b925050608086013567ffffffffffffffff81111561236a57600080fd5b61237688828901611f56565b9150509295509295909350565b6000806040838503121561239657600080fd5b60006123a485828601611e6f565b92505060206123b585828601611f02565b9150509250929050565b600080604083850312156123d257600080fd5b60006123e085828601611e6f565b92505060206123f1858286016121a6565b9150509250929050565b6000806000806080858703121561241157600080fd5b600061241f87828801611e6f565b9450506020612430878288016121a6565b935050604085013567ffffffffffffffff81111561244d57600080fd5b61245987828801611f56565b925050606085013567ffffffffffffffff81111561247657600080fd5b612482878288016120c6565b91505092959194509250565b600080604083850312156124a157600080fd5b600083013567ffffffffffffffff8111156124bb57600080fd5b6124c785828601611e84565b925050602083013567ffffffffffffffff8111156124e457600080fd5b6124f085828601611ed8565b9150509250929050565b60006020828403121561250c57600080fd5b600061251a84828501611f2c565b91505092915050565b60006020828403121561253557600080fd5b600061254384828501611f41565b91505092915050565b60006020828403121561255e57600080fd5b600082013567ffffffffffffffff81111561257857600080fd5b61258484828501611f80565b91505092915050565b60006020828403121561259f57600080fd5b600082013567ffffffffffffffff8111156125b957600080fd5b6125c5848285016120c6565b91505092915050565b6000602082840312156125e057600080fd5b60006125ee848285016121a6565b91505092915050565b6000806040838503121561260a57600080fd5b6000612618858286016121a6565b925050602083013567ffffffffffffffff81111561263557600080fd5b61264185828601611f80565b9150509250929050565b60006126578383612786565b905092915050565b600061266b8383612bc1565b60208301905092915050565b612680816131b8565b82525050565b61268f816131b8565b82525050565b60006126a0826130ab565b6126aa81856130f1565b9350836020820285016126bc85613076565b8060005b858110156126f857848403895281516126d9858261264b565b94506126e4836130d7565b925060208a019950506001810190506126c0565b50829750879550505050505092915050565b6000612715826130b6565b61271f8185613102565b935061272a83613086565b8060005b8381101561275b578151612742888261265f565b975061274d836130e4565b92505060018101905061272e565b5085935050505092915050565b612771816131ca565b82525050565b612780816131d6565b82525050565b6000612791826130c1565b61279b8185613113565b93506127ab818560208601613255565b6127b4816133e3565b840191505092915050565b60006127ca826130c1565b6127d48185613124565b93506127e4818560208601613255565b6127ed816133e3565b840191505092915050565b6000612803826130cc565b61280d8185613135565b935061281d818560208601613255565b612826816133e3565b840191505092915050565b600061283c826130cc565b6128468185613146565b9350612856818560208601613255565b61285f816133e3565b840191505092915050565b6000815461287781613288565b6128818186613157565b9450600182166000811461289c57600181146128ad576128e0565b60ff198316865281860193506128e0565b6128b685613096565b60005b838110156128d8578154818901526001820191506020810190506128b9565b838801955050505b50505092915050565b60006128f6602883613146565b915061290182613401565b604082019050919050565b6000612919602683613146565b915061292482613450565b604082019050919050565b600061293c602a83613146565b91506129478261349f565b604082019050919050565b600061295f602e83613146565b915061296a826134ee565b604082019050919050565b6000612982602583613146565b915061298d8261353d565b604082019050919050565b60006129a5602a83613146565b91506129b08261358c565b604082019050919050565b60006129c8602083613146565b91506129d3826135db565b602082019050919050565b60006129eb602983613146565b91506129f682613604565b604082019050919050565b6000612a0e602983613146565b9150612a1982613653565b604082019050919050565b6000612a31602883613146565b9150612a3c826136a2565b604082019050919050565b6000612a54602183613146565b9150612a5f826136f1565b604082019050919050565b6000612a77603483613146565b9150612a8282613740565b604082019050919050565b60006060830160008301518482036000860152612aaa82826127f8565b91505060208301518482036020860152612ac482826127f8565b91505060408301518482036040860152612ade82826127f8565b9150508091505092915050565b608082016000820151612b016000850182612777565b506020820151612b146020850182612677565b506040820151612b276040850182612bdf565b506060820151612b3a6060850182612bdf565b50505050565b60006040830160008301518482036000860152612b5d8282612a8d565b91505060208301518482036020860152612b778282612b84565b9150508091505092915050565b600060a083016000830151612b9c6000860182612aeb565b5060208301518482036080860152612bb48282612695565b9150508091505092915050565b612bca8161322c565b82525050565b612bd98161322c565b82525050565b612be881613236565b82525050565b6000612bfa828561286a565b9150612c06828461286a565b91508190509392505050565b6000602082019050612c276000830184612686565b92915050565b600060a082019050612c426000830188612686565b612c4f6020830187612686565b8181036040830152612c61818661270a565b90508181036060830152612c75818561270a565b90508181036080830152612c8981846127bf565b90509695505050505050565b600060a082019050612caa6000830188612686565b612cb76020830187612686565b612cc46040830186612bd0565b612cd16060830185612bd0565b8181036080830152612ce381846127bf565b90509695505050505050565b60006020820190508181036000830152612d09818461270a565b905092915050565b60006040820190508181036000830152612d2b818561270a565b90508181036020830152612d3f818461270a565b90509392505050565b6000602082019050612d5d6000830184612768565b92915050565b60006020820190508181036000830152612d7d8184612831565b905092915050565b60006020820190508181036000830152612d9e816128e9565b9050919050565b60006020820190508181036000830152612dbe8161290c565b9050919050565b60006020820190508181036000830152612dde8161292f565b9050919050565b60006020820190508181036000830152612dfe81612952565b9050919050565b60006020820190508181036000830152612e1e81612975565b9050919050565b60006020820190508181036000830152612e3e81612998565b9050919050565b60006020820190508181036000830152612e5e816129bb565b9050919050565b60006020820190508181036000830152612e7e816129de565b9050919050565b60006020820190508181036000830152612e9e81612a01565b9050919050565b60006020820190508181036000830152612ebe81612a24565b9050919050565b60006020820190508181036000830152612ede81612a47565b9050919050565b60006020820190508181036000830152612efe81612a6a565b9050919050565b60006020820190508181036000830152612f1f8184612b40565b905092915050565b6000602082019050612f3c6000830184612bd0565b92915050565b6000604082019050612f576000830185612bd0565b612f646020830184612bd0565b9392505050565b6000612f75612f86565b9050612f8182826132ba565b919050565b6000604051905090565b600067ffffffffffffffff821115612fab57612faa613392565b5b602082029050602081019050919050565b600067ffffffffffffffff821115612fd757612fd6613392565b5b602082029050602081019050919050565b600067ffffffffffffffff82111561300357613002613392565b5b602082029050602081019050919050565b600067ffffffffffffffff82111561302f5761302e613392565b5b613038826133e3565b9050602081019050919050565b600067ffffffffffffffff8211156130605761305f613392565b5b613069826133e3565b9050602081019050919050565b6000819050602082019050919050565b6000819050602082019050919050565b60008190508160005260206000209050919050565b600081519050919050565b600081519050919050565b600081519050919050565b600081519050919050565b6000602082019050919050565b6000602082019050919050565b600082825260208201905092915050565b600082825260208201905092915050565b600082825260208201905092915050565b600082825260208201905092915050565b600082825260208201905092915050565b600082825260208201905092915050565b600081905092915050565b600061316d8261322c565b91506131788361322c565b9250827fffffffffffffffffffffffffffffffffffffffffffffffffffffffffffffffff038211156131ad576131ac613334565b5b828201905092915050565b60006131c38261320c565b9050919050565b60008115159050919050565b6000819050919050565b60007fffffffff0000000000000000000000000000000000000000000000000000000082169050919050565b600073ffffffffffffffffffffffffffffffffffffffff82169050919050565b6000819050919050565b600063ffffffff82169050919050565b82818337600083830152505050565b60005b83811015613273578082015181840152602081019050613258565b83811115613282576000848401525b50505050565b600060028204905060018216806132a057607f821691505b602082108114156132b4576132b3613363565b5b50919050565b6132c3826133e3565b810181811067ffffffffffffffff821117156132e2576132e1613392565b5b80604052505050565b60006132f68261322c565b91507fffffffffffffffffffffffffffffffffffffffffffffffffffffffffffffffff82141561332957613328613334565b5b600182019050919050565b7f4e487b7100000000000000000000000000000000000000000000000000000000600052601160045260246000fd5b7f4e487b7100000000000000000000000000000000000000000000000000000000600052602260045260246000fd5b7f4e487b7100000000000000000000000000000000000000000000000000000000600052604160045260246000fd5b600060033d11156133e05760046000803e6133dd6000516133f4565b90505b90565b6000601f19601f8301169050919050565b60008160e01c9050919050565b7f455243313135353a204552433131353552656365697665722072656a6563746560008201527f6420746f6b656e73000000000000000000000000000000000000000000000000602082015250565b7f4f776e61626c653a206e6577206f776e657220697320746865207a65726f206160008201527f6464726573730000000000000000000000000000000000000000000000000000602082015250565b7f455243313135353a2061646472657373207a65726f206973206e6f742061207660008201527f616c6964206f776e657200000000000000000000000000000000000000000000602082015250565b7f455243313135353a2063616c6c6572206973206e6f7420746f6b656e206f776e60008201527f6572206f7220617070726f766564000000000000000000000000000000000000602082015250565b7f455243313135353a207472616e7366657220746f20746865207a65726f20616460008201527f6472657373000000000000000000000000000000000000000000000000000000602082015250565b7f455243313135353a20696e73756666696369656e742062616c616e636520666f60008201527f72207472616e7366657200000000000000000000000000000000000000000000602082015250565b7f4f776e61626c653a2063616c6c6572206973206e6f7420746865206f776e6572600082015250565b7f455243313135353a2073657474696e6720617070726f76616c2073746174757360008201527f20666f722073656c660000000000000000000000000000000000000000000000602082015250565b7f455243313135353a206163636f756e747320616e6420696473206c656e67746860008201527f206d69736d617463680000000000000000000000000000000000000000000000602082015250565b7f455243313135353a2069647320616e6420616d6f756e7473206c656e6774682060008201527f6d69736d61746368000000000000000000000000000000000000000000000000602082015250565b7f455243313135353a206d696e7420746f20746865207a65726f2061646472657360008201527f7300000000000000000000000000000000000000000000000000000000000000602082015250565b7f455243313135353a207472616e7366657220746f206e6f6e2d4552433131353560008201527f526563656976657220696d706c656d656e746572000000000000000000000000602082015250565b600060443d101561379f57613822565b6137a7612f86565b60043d036004823e80513d602482011167ffffffffffffffff821117156137cf575050613822565b808201805167ffffffffffffffff8111156137ed5750505050613822565b80602083010160043d03850181111561380a575050505050613822565b613819826020018501866132ba565b82955050505050505b90565b61382e816131b8565b811461383957600080fd5b50565b613845816131ca565b811461385057600080fd5b50565b61385c816131d6565b811461386757600080fd5b50565b613873816131e0565b811461387e57600080fd5b50565b61388a8161322c565b811461389557600080fd5b50565b6138a181613236565b81146138ac57600080fd5b5056fea26469706673582212206bd9800f5f738969ce09f0eab65631db181591306b5140d750033a0e59aa4a4964736f6c63430008040033",
  "linkReferences": {},
  "deployedLinkReferences": {}
}