{
  "_format": "hh-sol-artifact-1",
  "contractName": "Attestor",
  "sourceName": "contracts/Attestor.sol",
  "abi": [
    {
      "inputs": [
        {
          "internalType": "address",
          "name": "_reclaimAddress",
          "type": "address"
        }
      ],
      "stateMutability": "nonpayable",
      "type": "constructor"
    },
    {
      "anonymous": false,
      "inputs": [
        {
          "indexed": true,
          "internalType": "address",
          "name": "account",
          "type": "address"
        },
        {
          "indexed": true,
          "internalType": "address",
          "name": "operator",
          "type": "address"
        },
        {
          "indexed": false,
          "internalType": "bool",
          "name": "approved",
          "type": "bool"
        }
      ],
      "name": "ApprovalForAll",
      "type": "event"
    },
    {
      "anonymous": false,
      "inputs": [
        {
          "indexed": true,
          "internalType": "address",
          "name": "previousOwner",
          "type": "address"
        },
        {
          "indexed": true,
          "internalType": "address",
          "name": "newOwner",
          "type": "address"
        }
      ],
      "name": "OwnershipTransferred",
      "type": "event"
    },
    {
      "anonymous": false,
      "inputs": [
        {
          "indexed": true,
          "internalType": "address",
          "name": "operator",
          "type": "address"
        },
        {
          "indexed": true,
          "internalType": "address",
          "name": "from",
          "type": "address"
        },
        {
          "indexed": true,
          "internalType": "address",
          "name": "to",
          "type": "address"
        },
        {
          "indexed": false,
          "internalType": "uint256[]",
          "name": "ids",
          "type": "uint256[]"
        },
        {
          "indexed": false,
          "internalType": "uint256[]",
          "name": "values",
          "type": "uint256[]"
        }
      ],
      "name": "TransferBatch",
      "type": "event"
    },
    {
      "anonymous": false,
      "inputs": [
        {
          "indexed": true,
          "internalType": "address",
          "name": "operator",
          "type": "address"
        },
        {
          "indexed": true,
          "internalType": "address",
          "name": "from",
          "type": "address"
        },
        {
          "indexed": true,
          "internalType": "address",
          "name": "to",
          "type": "address"
        },
        {
          "indexed": false,
          "internalType": "uint256",
          "name": "id",
          "type": "uint256"
        },
        {
          "indexed": false,
          "internalType": "uint256",
          "name": "value",
          "type": "uint256"
        }
      ],
      "name": "TransferSingle",
      "type": "event"
    },
    {
      "anonymous": false,
      "inputs": [
        {
          "indexed": false,
          "internalType": "string",
          "name": "value",
          "type": "string"
        },
        {
          "indexed": true,
          "internalType": "uint256",
          "name": "id",
          "type": "uint256"
        }
      ],
      "name": "URI",
      "type": "event"
    },
    {
      "inputs": [],
      "name": "_baseURI",
      "outputs": [
        {
          "internalType": "string",
          "name": "",
          "type": "string"
        }
      ],
      "stateMutability": "view",
      "type": "function"
    },
    {
      "inputs": [
        {
          "internalType": "address",
          "name": "account",
          "type": "address"
        },
        {
          "internalType": "uint256",
          "name": "id",
          "type": "uint256"
        }
      ],
      "name": "balanceOf",
      "outputs": [
        {
          "internalType": "uint256",
          "name": "",
          "type": "uint256"
        }
      ],
      "stateMutability": "view",
      "type": "function"
    },
    {
      "inputs": [
        {
          "internalType": "address[]",
          "name": "accounts",
          "type": "address[]"
        },
        {
          "internalType": "uint256[]",
          "name": "ids",
          "type": "uint256[]"
        }
      ],
      "name": "balanceOfBatch",
      "outputs": [
        {
          "internalType": "uint256[]",
          "name": "",
          "type": "uint256[]"
        }
      ],
      "stateMutability": "view",
      "type": "function"
    },
    {
      "inputs": [
        {
          "internalType": "address",
          "name": "account",
          "type": "address"
        },
        {
          "internalType": "address",
          "name": "operator",
          "type": "address"
        }
      ],
      "name": "isApprovedForAll",
      "outputs": [
        {
          "internalType": "bool",
          "name": "",
          "type": "bool"
        }
      ],
      "stateMutability": "view",
      "type": "function"
    },
    {
      "inputs": [
        {
          "internalType": "address",
          "name": "account",
          "type": "address"
        },
        {
          "internalType": "bytes",
          "name": "data",
          "type": "bytes"
        },
        {
          "components": [
            {
              "components": [
                {
                  "internalType": "string",
                  "name": "provider",
                  "type": "string"
                },
                {
                  "internalType": "string",
                  "name": "parameters",
                  "type": "string"
                },
                {
                  "internalType": "string",
                  "name": "context",
                  "type": "string"
                }
              ],
              "internalType": "struct Claims.ClaimInfo",
              "name": "claimInfo",
              "type": "tuple"
            },
            {
              "components": [
                {
                  "components": [
                    {
                      "internalType": "bytes32",
                      "name": "identifier",
                      "type": "bytes32"
                    },
                    {
                      "internalType": "address",
                      "name": "owner",
                      "type": "address"
                    },
                    {
                      "internalType": "uint32",
                      "name": "timestampS",
                      "type": "uint32"
                    },
                    {
                      "internalType": "uint32",
                      "name": "epoch",
                      "type": "uint32"
                    }
                  ],
                  "internalType": "struct Claims.CompleteClaimData",
                  "name": "claim",
                  "type": "tuple"
                },
                {
                  "internalType": "bytes[]",
                  "name": "signatures",
                  "type": "bytes[]"
                }
              ],
              "internalType": "struct Claims.SignedClaim",
              "name": "signedClaim",
              "type": "tuple"
            }
          ],
          "internalType": "struct Reclaim.Proof",
          "name": "proof",
          "type": "tuple"
        }
      ],
      "name": "mint",
      "outputs": [],
      "stateMutability": "nonpayable",
      "type": "function"
    },
    {
      "inputs": [
        {
          "internalType": "address",
          "name": "account",
          "type": "address"
        }
      ],
      "name": "mintBadge",
      "outputs": [],
      "stateMutability": "nonpayable",
      "type": "function"
    },
    {
      "inputs": [],
      "name": "name",
      "outputs": [
        {
          "internalType": "string",
          "name": "",
          "type": "string"
        }
      ],
      "stateMutability": "view",
      "type": "function"
    },
    {
      "inputs": [],
      "name": "owner",
      "outputs": [
        {
          "internalType": "address",
          "name": "",
          "type": "address"
        }
      ],
      "stateMutability": "view",
      "type": "function"
    },
    {
      "inputs": [],
      "name": "renounceOwnership",
      "outputs": [],
      "stateMutability": "nonpayable",
      "type": "function"
    },
    {
      "inputs": [
        {
          "internalType": "address",
          "name": "from",
          "type": "address"
        },
        {
          "internalType": "address",
          "name": "to",
          "type": "address"
        },
        {
          "internalType": "uint256[]",
          "name": "ids",
          "type": "uint256[]"
        },
        {
          "internalType": "uint256[]",
          "name": "amounts",
          "type": "uint256[]"
        },
        {
          "internalType": "bytes",
          "name": "data",
          "type": "bytes"
        }
      ],
      "name": "safeBatchTransferFrom",
      "outputs": [],
      "stateMutability": "nonpayable",
      "type": "function"
    },
    {
      "inputs": [
        {
          "internalType": "address",
          "name": "from",
          "type": "address"
        },
        {
          "internalType": "address",
          "name": "to",
          "type": "address"
        },
        {
          "internalType": "uint256",
          "name": "id",
          "type": "uint256"
        },
        {
          "internalType": "uint256",
          "name": "amount",
          "type": "uint256"
        },
        {
          "internalType": "bytes",
          "name": "data",
          "type": "bytes"
        }
      ],
      "name": "safeTransferFrom",
      "outputs": [],
      "stateMutability": "nonpayable",
      "type": "function"
    },
    {
      "inputs": [
        {
          "internalType": "address",
          "name": "operator",
          "type": "address"
        },
        {
          "internalType": "bool",
          "name": "approved",
          "type": "bool"
        }
      ],
      "name": "setApprovalForAll",
      "outputs": [],
      "stateMutability": "nonpayable",
      "type": "function"
    },
    {
      "inputs": [
        {
          "internalType": "string",
          "name": "newuri",
          "type": "string"
        }
      ],
      "name": "setBaseURI",
      "outputs": [],
      "stateMutability": "nonpayable",
      "type": "function"
    },
    {
      "inputs": [
        {
          "internalType": "bytes4",
          "name": "interfaceId",
          "type": "bytes4"
        }
      ],
      "name": "supportsInterface",
      "outputs": [
        {
          "internalType": "bool",
          "name": "",
          "type": "bool"
        }
      ],
      "stateMutability": "view",
      "type": "function"
    },
    {
      "inputs": [
        {
          "internalType": "address",
          "name": "newOwner",
          "type": "address"
        }
      ],
      "name": "transferOwnership",
      "outputs": [],
      "stateMutability": "nonpayable",
      "type": "function"
    },
    {
      "inputs": [
        {
          "internalType": "uint256",
          "name": "tokenId",
          "type": "uint256"
        }
      ],
      "name": "uri",
      "outputs": [
        {
          "internalType": "string",
          "name": "",
          "type": "string"
        }
      ],
      "stateMutability": "view",
      "type": "function"
    },
    {
      "inputs": [
        {
          "components": [
            {
              "components": [
                {
                  "internalType": "string",
                  "name": "provider",
                  "type": "string"
                },
                {
                  "internalType": "string",
                  "name": "parameters",
                  "type": "string"
                },
                {
                  "internalType": "string",
                  "name": "context",
                  "type": "string"
                }
              ],
              "internalType": "struct Claims.ClaimInfo",
              "name": "claimInfo",
              "type": "tuple"
            },
            {
              "components": [
                {
                  "components": [
                    {
                      "internalType": "bytes32",
                      "name": "identifier",
                      "type": "bytes32"
                    },
                    {
                      "internalType": "address",
                      "name": "owner",
                      "type": "address"
                    },
                    {
                      "internalType": "uint32",
                      "name": "timestampS",
                      "type": "uint32"
                    },
                    {
                      "internalType": "uint32",
                      "name": "epoch",
                      "type": "uint32"
                    }
                  ],
                  "internalType": "struct Claims.CompleteClaimData",
                  "name": "claim",
                  "type": "tuple"
                },
                {
                  "internalType": "bytes[]",
                  "name": "signatures",
                  "type": "bytes[]"
                }
              ],
              "internalType": "struct Claims.SignedClaim",
              "name": "signedClaim",
              "type": "tuple"
            }
          ],
          "internalType": "struct Reclaim.Proof",
          "name": "proof",
          "type": "tuple"
        }
      ],
      "name": "verifyProof",
      "outputs": [],
      "stateMutability": "view",
      "type": "function"
    }
  ],
  "bytecode": "0x60806040526040518060400160405280600e81526020017f576562334875622050726f6f66730000000000000000000000000000000000008152506004908051906020019062000051929190620001f9565b503480156200005f57600080fd5b5060405162004c3938038062004c398339818101604052810190620000859190620002c0565b60405180602001604052806000815250620000a6816200010f60201b60201c565b50620000c7620000bb6200012b60201b60201c565b6200013360201b60201c565b80600560006101000a81548173ffffffffffffffffffffffffffffffffffffffff021916908373ffffffffffffffffffffffffffffffffffffffff160217905550506200039f565b806002908051906020019062000127929190620001f9565b5050565b600033905090565b6000600360009054906101000a900473ffffffffffffffffffffffffffffffffffffffff16905081600360006101000a81548173ffffffffffffffffffffffffffffffffffffffff021916908373ffffffffffffffffffffffffffffffffffffffff1602179055508173ffffffffffffffffffffffffffffffffffffffff168173ffffffffffffffffffffffffffffffffffffffff167f8be0079c531659141344cd1fd0a4f28419497f9722a3daafe3b4186f6b6457e060405160405180910390a35050565b828054620002079062000320565b90600052602060002090601f0160209004810192826200022b576000855562000277565b82601f106200024657805160ff191683800117855562000277565b8280016001018555821562000277579182015b828111156200027657825182559160200191906001019062000259565b5b5090506200028691906200028a565b5090565b5b80821115620002a55760008160009055506001016200028b565b5090565b600081519050620002ba8162000385565b92915050565b600060208284031215620002d357600080fd5b6000620002e384828501620002a9565b91505092915050565b6000620002f98262000300565b9050919050565b600073ffffffffffffffffffffffffffffffffffffffff82169050919050565b600060028204905060018216806200033957607f821691505b6020821081141562000350576200034f62000356565b5b50919050565b7f4e487b7100000000000000000000000000000000000000000000000000000000600052602260045260246000fd5b6200039081620002ec565b81146200039c57600080fd5b50565b61488a80620003af6000396000f3fe608060405234801561001057600080fd5b506004361061010a5760003560e01c806355f804b3116100a2578063a22cb46511610071578063a22cb465146102a3578063a960e69e146102bf578063e985e9c5146102db578063f242432a1461030b578063f2fde38b146103275761010a565b806355f804b314610241578063715018a61461025d578063743976a0146102675780638da5cb5b146102855761010a565b80632b108708116100de5780632b108708146101bd5780632eb2c2d6146101d95780634a36f6e4146101f55780634e1273f4146102115761010a565b8062fdd58e1461010f57806301ffc9a71461013f57806306fdde031461016f5780630e89341c1461018d575b600080fd5b61012960048036038101906101249190612da3565b610343565b6040516101369190613bc5565b60405180910390f35b61015960048036038101906101549190612e4b565b61040c565b6040516101669190613887565b60405180910390f35b6101776104ee565b60405161018491906138a2565b60405180910390f35b6101a760048036038101906101a29190612f60565b61057c565b6040516101b491906138a2565b60405180910390f35b6101d760048036038101906101d29190612d24565b6105b0565b005b6101f360048036038101906101ee9190612b9a565b610964565b005b61020f600480360381019061020a9190612b35565b610a05565b005b61022b60048036038101906102269190612ddf565b610a72565b604051610238919061382e565b60405180910390f35b61025b60048036038101906102569190612e9d565b610c23565b005b610265610c45565b005b61026f610c59565b60405161027c91906138a2565b60405180910390f35b61028d610ce7565b60405161029a9190613751565b60405180910390f35b6102bd60048036038101906102b89190612ce8565b610d11565b005b6102d960048036038101906102d49190612f1f565b610d27565b005b6102f560048036038101906102f09190612b5e565b610db5565b6040516103029190613887565b60405180910390f35b61032560048036038101906103209190612c59565b610e49565b005b610341600480360381019061033c9190612b35565b610eea565b005b60008073ffffffffffffffffffffffffffffffffffffffff168373ffffffffffffffffffffffffffffffffffffffff1614156103b4576040517f08c379a00000000000000000000000000000000000000000000000000000000081526004016103ab906139a3565b60405180910390fd5b60008083815260200190815260200160002060008473ffffffffffffffffffffffffffffffffffffffff1673ffffffffffffffffffffffffffffffffffffffff16815260200190815260200160002054905092915050565b60007fd9b67a26000000000000000000000000000000000000000000000000000000007bffffffffffffffffffffffffffffffffffffffffffffffffffffffff1916827bffffffffffffffffffffffffffffffffffffffffffffffffffffffff191614806104d757507f0e89341c000000000000000000000000000000000000000000000000000000007bffffffffffffffffffffffffffffffffffffffffffffffffffffffff1916827bffffffffffffffffffffffffffffffffffffffffffffffffffffffff1916145b806104e757506104e682610f6e565b5b9050919050565b600480546104fb90613fd2565b80601f016020809104026020016040519081016040528092919081815260200182805461052790613fd2565b80156105745780601f1061054957610100808354040283529160200191610574565b820191906000526020600020905b81548152906001019060200180831161055757829003601f168201915b505050505081565b6060600661058983610fd8565b60405160200161059a929190613717565b6040516020818303038152906040529050919050565b600560009054906101000a900473ffffffffffffffffffffffffffffffffffffffff1673ffffffffffffffffffffffffffffffffffffffff1663a960e69e826040518263ffffffff1660e01b815260040161060b9190613ba3565b60006040518083038186803b15801561062357600080fd5b505afa158015610637573d6000803e3d6000fd5b50505050600073__$c8f28cfd65b0ed2d9989f183e800e4e54d$__633755667e8360000151604001516040518263ffffffff1660e01b815260040161067c91906138f9565b60006040518083038186803b15801561069457600080fd5b505af41580156106a8573d6000803e3d6000fd5b505050506040513d6000823e3d601f19601f820116820180604052508101906106d19190612ede565b90506000815111156107475760006106e8826110fc565b9050601d811115610706576107018560006001876112f8565b610741565b6040517f08c379a000000000000000000000000000000000000000000000000000000000815260040161073890613ac3565b60405180910390fd5b5061095e565b600073__$c8f28cfd65b0ed2d9989f183e800e4e54d$__633755667e8460000151604001516040518263ffffffff1660e01b815260040161078891906138c4565b60006040518083038186803b1580156107a057600080fd5b505af41580156107b4573d6000803e3d6000fd5b505050506040513d6000823e3d601f19601f820116820180604052508101906107dd9190612ede565b90506000815111156108525760006107f4826110fc565b905060008111156108115761080c86600180886112f8565b61084c565b6040517f08c379a000000000000000000000000000000000000000000000000000000000815260040161084390613a03565b60405180910390fd5b5061095c565b600073__$c8f28cfd65b0ed2d9989f183e800e4e54d$__633755667e8560000151604001516040518263ffffffff1660e01b8152600401610893919061392e565b60006040518083038186803b1580156108ab57600080fd5b505af41580156108bf573d6000803e3d6000fd5b505050506040513d6000823e3d601f19601f820116820180604052508101906108e89190612ede565b905060008151111561095a5760006108ff826110fc565b9050601481101561091d576109188760026001896112f8565b610958565b6040517f08c379a000000000000000000000000000000000000000000000000000000000815260040161094f90613a83565b60405180910390fd5b505b505b505b50505050565b61096c6114a9565b73ffffffffffffffffffffffffffffffffffffffff168573ffffffffffffffffffffffffffffffffffffffff1614806109b257506109b1856109ac6114a9565b610db5565b5b6109f1576040517f08c379a00000000000000000000000000000000000000000000000000000000081526004016109e8906139c3565b60405180910390fd5b6109fe85858585856114b1565b5050505050565b6001610a12826003610343565b10610a52576040517f08c379a0000000000000000000000000000000000000000000000000000000008152600401610a4990613b83565b60405180910390fd5b610a6f8160036001604051806020016040528060008152506112f8565b50565b60608151835114610ab8576040517f08c379a0000000000000000000000000000000000000000000000000000000008152600401610aaf90613b03565b60405180910390fd5b6000835167ffffffffffffffff811115610afb577f4e487b7100000000000000000000000000000000000000000000000000000000600052604160045260246000fd5b604051908082528060200260200182016040528015610b295781602001602082028036833780820191505090505b50905060005b8451811015610c1857610bc2858281518110610b74577f4e487b7100000000000000000000000000000000000000000000000000000000600052603260045260246000fd5b6020026020010151858381518110610bb5577f4e487b7100000000000000000000000000000000000000000000000000000000600052603260045260246000fd5b6020026020010151610343565b828281518110610bfb577f4e487b7100000000000000000000000000000000000000000000000000000000600052603260045260246000fd5b60200260200101818152505080610c1190614035565b9050610b2f565b508091505092915050565b610c2b61181f565b8060069080519060200190610c419291906124ef565b5050565b610c4d61181f565b610c57600061189d565b565b60068054610c6690613fd2565b80601f0160208091040260200160405190810160405280929190818152602001828054610c9290613fd2565b8015610cdf5780601f10610cb457610100808354040283529160200191610cdf565b820191906000526020600020905b815481529060010190602001808311610cc257829003601f168201915b505050505081565b6000600360009054906101000a900473ffffffffffffffffffffffffffffffffffffffff16905090565b610d23610d1c6114a9565b8383611963565b5050565b600560009054906101000a900473ffffffffffffffffffffffffffffffffffffffff1673ffffffffffffffffffffffffffffffffffffffff1663a960e69e826040518263ffffffff1660e01b8152600401610d829190613ba3565b60006040518083038186803b158015610d9a57600080fd5b505afa158015610dae573d6000803e3d6000fd5b5050505050565b6000600160008473ffffffffffffffffffffffffffffffffffffffff1673ffffffffffffffffffffffffffffffffffffffff16815260200190815260200160002060008373ffffffffffffffffffffffffffffffffffffffff1673ffffffffffffffffffffffffffffffffffffffff16815260200190815260200160002060009054906101000a900460ff16905092915050565b610e516114a9565b73ffffffffffffffffffffffffffffffffffffffff168573ffffffffffffffffffffffffffffffffffffffff161480610e975750610e9685610e916114a9565b610db5565b5b610ed6576040517f08c379a0000000000000000000000000000000000000000000000000000000008152600401610ecd906139c3565b60405180910390fd5b610ee38585858585611ad0565b5050505050565b610ef261181f565b600073ffffffffffffffffffffffffffffffffffffffff168173ffffffffffffffffffffffffffffffffffffffff161415610f62576040517f08c379a0000000000000000000000000000000000000000000000000000000008152600401610f5990613983565b60405180910390fd5b610f6b8161189d565b50565b60007f01ffc9a7000000000000000000000000000000000000000000000000000000007bffffffffffffffffffffffffffffffffffffffffffffffffffffffff1916827bffffffffffffffffffffffffffffffffffffffffffffffffffffffff1916149050919050565b606060006001610fe784611d6c565b01905060008167ffffffffffffffff81111561102c577f4e487b7100000000000000000000000000000000000000000000000000000000600052604160045260246000fd5b6040519080825280601f01601f19166020018201604052801561105e5781602001600182028036833780820191505090505b509050600082602001820190505b6001156110f1578080600190039150507f3031323334353637383961626364656600000000000000000000000000000000600a86061a8153600a85816110db577f4e487b7100000000000000000000000000000000000000000000000000000000600052601260045260246000fd5b04945060008514156110ec576110f1565b61106c565b819350505050919050565b60008082905060008060005b83518110156112ec57602e60f81b84828151811061114f577f4e487b7100000000000000000000000000000000000000000000000000000000600052603260045260246000fd5b602001015160f81c60f81b7effffffffffffffffffffffffffffffffffffffffffffffffffffffffffffff19161415611187576112ec565b60308482815181106111c2577f4e487b7100000000000000000000000000000000000000000000000000000000600052603260045260246000fd5b602001015160f81c60f81b60f81c60ff161015801561122b57506039848281518110611217577f4e487b7100000000000000000000000000000000000000000000000000000000600052603260045260246000fd5b602001015160f81c60f81b60f81c60ff1611155b61126a576040517f08c379a000000000000000000000000000000000000000000000000000000000815260040161126190613aa3565b60405180910390fd5b60308482815181106112a5577f4e487b7100000000000000000000000000000000000000000000000000000000600052603260045260246000fd5b602001015160f81c60f81b60f81c6112bd9190613ec1565b60ff16600a846112cd9190613e67565b6112d79190613e11565b925080806112e490614035565b915050611108565b50819350505050919050565b600073ffffffffffffffffffffffffffffffffffffffff168473ffffffffffffffffffffffffffffffffffffffff161415611368576040517f08c379a000000000000000000000000000000000000000000000000000000000815260040161135f90613b43565b60405180910390fd5b60006113726114a9565b9050600061137f85611fa3565b9050600061138c85611fa3565b905061139d83600089858589612069565b8460008088815260200190815260200160002060008973ffffffffffffffffffffffffffffffffffffffff1673ffffffffffffffffffffffffffffffffffffffff16815260200190815260200160002060008282546113fc9190613e11565b925050819055508673ffffffffffffffffffffffffffffffffffffffff16600073ffffffffffffffffffffffffffffffffffffffff168473ffffffffffffffffffffffffffffffffffffffff167fc3d58168c5ae7397731d063d5bbf3d657854427343f4c083240f7aacaa2d0f62898960405161147a929190613be0565b60405180910390a4611491836000898585896120ee565b6114a0836000898989896120f6565b50505050505050565b600033905090565b81518351146114f5576040517f08c379a00000000000000000000000000000000000000000000000000000000081526004016114ec90613b23565b60405180910390fd5b600073ffffffffffffffffffffffffffffffffffffffff168473ffffffffffffffffffffffffffffffffffffffff161415611565576040517f08c379a000000000000000000000000000000000000000000000000000000000815260040161155c906139e3565b60405180910390fd5b600061156f6114a9565b905061157f818787878787612069565b60005b845181101561177c5760008582815181106115c6577f4e487b7100000000000000000000000000000000000000000000000000000000600052603260045260246000fd5b60200260200101519050600085838151811061160b577f4e487b7100000000000000000000000000000000000000000000000000000000600052603260045260246000fd5b60200260200101519050600080600084815260200190815260200160002060008b73ffffffffffffffffffffffffffffffffffffffff1673ffffffffffffffffffffffffffffffffffffffff168152602001908152602001600020549050818110156116ac576040517f08c379a00000000000000000000000000000000000000000000000000000000081526004016116a390613a43565b60405180910390fd5b81810360008085815260200190815260200160002060008c73ffffffffffffffffffffffffffffffffffffffff1673ffffffffffffffffffffffffffffffffffffffff168152602001908152602001600020819055508160008085815260200190815260200160002060008b73ffffffffffffffffffffffffffffffffffffffff1673ffffffffffffffffffffffffffffffffffffffff16815260200190815260200160002060008282546117619190613e11565b925050819055505050508061177590614035565b9050611582565b508473ffffffffffffffffffffffffffffffffffffffff168673ffffffffffffffffffffffffffffffffffffffff168273ffffffffffffffffffffffffffffffffffffffff167f4a39dc06d4c0dbc64b70af90fd698a233a518aa5d07e595d983b8c0526c8f7fb87876040516117f3929190613850565b60405180910390a46118098187878787876120ee565b6118178187878787876122dd565b505050505050565b6118276114a9565b73ffffffffffffffffffffffffffffffffffffffff16611845610ce7565b73ffffffffffffffffffffffffffffffffffffffff161461189b576040517f08c379a000000000000000000000000000000000000000000000000000000000815260040161189290613a63565b60405180910390fd5b565b6000600360009054906101000a900473ffffffffffffffffffffffffffffffffffffffff16905081600360006101000a81548173ffffffffffffffffffffffffffffffffffffffff021916908373ffffffffffffffffffffffffffffffffffffffff1602179055508173ffffffffffffffffffffffffffffffffffffffff168173ffffffffffffffffffffffffffffffffffffffff167f8be0079c531659141344cd1fd0a4f28419497f9722a3daafe3b4186f6b6457e060405160405180910390a35050565b8173ffffffffffffffffffffffffffffffffffffffff168373ffffffffffffffffffffffffffffffffffffffff1614156119d2576040517f08c379a00000000000000000000000000000000000000000000000000000000081526004016119c990613ae3565b60405180910390fd5b80600160008573ffffffffffffffffffffffffffffffffffffffff1673ffffffffffffffffffffffffffffffffffffffff16815260200190815260200160002060008473ffffffffffffffffffffffffffffffffffffffff1673ffffffffffffffffffffffffffffffffffffffff16815260200190815260200160002060006101000a81548160ff0219169083151502179055508173ffffffffffffffffffffffffffffffffffffffff168373ffffffffffffffffffffffffffffffffffffffff167f17307eab39ab6107e8899845ad3d59bd9653f200f220920489ca2b5937696c3183604051611ac39190613887565b60405180910390a3505050565b600073ffffffffffffffffffffffffffffffffffffffff168473ffffffffffffffffffffffffffffffffffffffff161415611b40576040517f08c379a0000000000000000000000000000000000000000000000000000000008152600401611b37906139e3565b60405180910390fd5b6000611b4a6114a9565b90506000611b5785611fa3565b90506000611b6485611fa3565b9050611b74838989858589612069565b600080600088815260200190815260200160002060008a73ffffffffffffffffffffffffffffffffffffffff1673ffffffffffffffffffffffffffffffffffffffff16815260200190815260200160002054905085811015611c0b576040517f08c379a0000000000000000000000000000000000000000000000000000000008152600401611c0290613a43565b60405180910390fd5b85810360008089815260200190815260200160002060008b73ffffffffffffffffffffffffffffffffffffffff1673ffffffffffffffffffffffffffffffffffffffff168152602001908152602001600020819055508560008089815260200190815260200160002060008a73ffffffffffffffffffffffffffffffffffffffff1673ffffffffffffffffffffffffffffffffffffffff1681526020019081526020016000206000828254611cc09190613e11565b925050819055508773ffffffffffffffffffffffffffffffffffffffff168973ffffffffffffffffffffffffffffffffffffffff168573ffffffffffffffffffffffffffffffffffffffff167fc3d58168c5ae7397731d063d5bbf3d657854427343f4c083240f7aacaa2d0f628a8a604051611d3d929190613be0565b60405180910390a4611d53848a8a86868a6120ee565b611d61848a8a8a8a8a6120f6565b505050505050505050565b600080600090507a184f03e93ff9f4daa797ed6e38ed64bf6a1f0100000000000000008310611df0577a184f03e93ff9f4daa797ed6e38ed64bf6a1f0100000000000000008381611de6577f4e487b7100000000000000000000000000000000000000000000000000000000600052601260045260246000fd5b0492506040810190505b6d04ee2d6d415b85acef81000000008310611e53576d04ee2d6d415b85acef81000000008381611e49577f4e487b7100000000000000000000000000000000000000000000000000000000600052601260045260246000fd5b0492506020810190505b662386f26fc100008310611ea857662386f26fc100008381611e9e577f4e487b7100000000000000000000000000000000000000000000000000000000600052601260045260246000fd5b0492506010810190505b6305f5e1008310611ef7576305f5e1008381611eed577f4e487b7100000000000000000000000000000000000000000000000000000000600052601260045260246000fd5b0492506008810190505b6127108310611f42576127108381611f38577f4e487b7100000000000000000000000000000000000000000000000000000000600052601260045260246000fd5b0492506004810190505b60648310611f8b5760648381611f81577f4e487b7100000000000000000000000000000000000000000000000000000000600052601260045260246000fd5b0492506002810190505b600a8310611f9a576001810190505b80915050919050565b60606000600167ffffffffffffffff811115611fe8577f4e487b7100000000000000000000000000000000000000000000000000000000600052604160045260246000fd5b6040519080825280602002602001820160405280156120165781602001602082028036833780820191505090505b5090508281600081518110612054577f4e487b7100000000000000000000000000000000000000000000000000000000600052603260045260246000fd5b60200260200101818152505080915050919050565b6120778686868686866124c4565b600073ffffffffffffffffffffffffffffffffffffffff168573ffffffffffffffffffffffffffffffffffffffff16146120e6576040517f08c379a00000000000000000000000000000000000000000000000000000000081526004016120dd90613a23565b60405180910390fd5b505050505050565b505050505050565b6121158473ffffffffffffffffffffffffffffffffffffffff166124cc565b156122d5578373ffffffffffffffffffffffffffffffffffffffff1663f23a6e6187878686866040518663ffffffff1660e01b815260040161215b9594939291906137d4565b602060405180830381600087803b15801561217557600080fd5b505af19250505080156121a657506040513d601f19601f820116820180604052508101906121a39190612e74565b60015b61224c576121b261410b565b806308c379a0141561220f57506121c7614734565b806121d25750612211565b806040517f08c379a000000000000000000000000000000000000000000000000000000000815260040161220691906138a2565b60405180910390fd5b505b6040517f08c379a000000000000000000000000000000000000000000000000000000000815260040161224390613b63565b60405180910390fd5b63f23a6e6160e01b7bffffffffffffffffffffffffffffffffffffffffffffffffffffffff1916817bffffffffffffffffffffffffffffffffffffffffffffffffffffffff1916146122d3576040517f08c379a00000000000000000000000000000000000000000000000000000000081526004016122ca90613963565b60405180910390fd5b505b505050505050565b6122fc8473ffffffffffffffffffffffffffffffffffffffff166124cc565b156124bc578373ffffffffffffffffffffffffffffffffffffffff1663bc197c8187878686866040518663ffffffff1660e01b815260040161234295949392919061376c565b602060405180830381600087803b15801561235c57600080fd5b505af192505050801561238d57506040513d601f19601f8201168201806040525081019061238a9190612e74565b60015b6124335761239961410b565b806308c379a014156123f657506123ae614734565b806123b957506123f8565b806040517f08c379a00000000000000000000000000000000000000000000000000000000081526004016123ed91906138a2565b60405180910390fd5b505b6040517f08c379a000000000000000000000000000000000000000000000000000000000815260040161242a90613b63565b60405180910390fd5b63bc197c8160e01b7bffffffffffffffffffffffffffffffffffffffffffffffffffffffff1916817bffffffffffffffffffffffffffffffffffffffffffffffffffffffff1916146124ba576040517f08c379a00000000000000000000000000000000000000000000000000000000081526004016124b190613963565b60405180910390fd5b505b505050505050565b505050505050565b6000808273ffffffffffffffffffffffffffffffffffffffff163b119050919050565b8280546124fb90613fd2565b90600052602060002090601f01602090048101928261251d5760008555612564565b82601f1061253657805160ff1916838001178555612564565b82800160010185558215612564579182015b82811115612563578251825591602001919060010190612548565b5b5090506125719190612575565b5090565b5b8082111561258e576000816000905550600101612576565b5090565b60006125a56125a084613c2e565b613c09565b905080838252602082019050828560208602820111156125c457600080fd5b60005b858110156125f457816125da88826127aa565b8452602084019350602083019250506001810190506125c7565b5050509392505050565b600061261161260c84613c5a565b613c09565b9050808382526020820190508285602086028201111561263057600080fd5b60005b8581101561267a57813567ffffffffffffffff81111561265257600080fd5b80860161265f8982612891565b85526020850194506020840193505050600181019050612633565b5050509392505050565b600061269761269284613c86565b613c09565b905080838252602082019050828560208602820111156126b657600080fd5b60005b858110156126e657816126cc8882612b0b565b8452602084019350602083019250506001810190506126b9565b5050509392505050565b60006127036126fe84613cb2565b613c09565b90508281526020810184848401111561271b57600080fd5b612726848285613f90565b509392505050565b600061274161273c84613ce3565b613c09565b90508281526020810184848401111561275957600080fd5b612764848285613f90565b509392505050565b600061277f61277a84613ce3565b613c09565b90508281526020810184848401111561279757600080fd5b6127a2848285613f9f565b509392505050565b6000813590506127b9816147ca565b92915050565b600082601f8301126127d057600080fd5b81356127e0848260208601612592565b91505092915050565b600082601f8301126127fa57600080fd5b813561280a8482602086016125fe565b91505092915050565b600082601f83011261282457600080fd5b8135612834848260208601612684565b91505092915050565b60008135905061284c816147e1565b92915050565b600081359050612861816147f8565b92915050565b6000813590506128768161480f565b92915050565b60008151905061288b8161480f565b92915050565b600082601f8301126128a257600080fd5b81356128b28482602086016126f0565b91505092915050565b600082601f8301126128cc57600080fd5b81356128dc84826020860161272e565b91505092915050565b600082601f8301126128f657600080fd5b815161290684826020860161276c565b91505092915050565b60006060828403121561292157600080fd5b61292b6060613c09565b9050600082013567ffffffffffffffff81111561294757600080fd5b612953848285016128bb565b600083015250602082013567ffffffffffffffff81111561297357600080fd5b61297f848285016128bb565b602083015250604082013567ffffffffffffffff81111561299f57600080fd5b6129ab848285016128bb565b60408301525092915050565b6000608082840312156129c957600080fd5b6129d36080613c09565b905060006129e384828501612852565b60008301525060206129f7848285016127aa565b6020830152506040612a0b84828501612b20565b6040830152506060612a1f84828501612b20565b60608301525092915050565b600060408284031215612a3d57600080fd5b612a476040613c09565b9050600082013567ffffffffffffffff811115612a6357600080fd5b612a6f8482850161290f565b600083015250602082013567ffffffffffffffff811115612a8f57600080fd5b612a9b84828501612aa7565b60208301525092915050565b600060a08284031215612ab957600080fd5b612ac36040613c09565b90506000612ad3848285016129b7565b600083015250608082013567ffffffffffffffff811115612af357600080fd5b612aff848285016127e9565b60208301525092915050565b600081359050612b1a81614826565b92915050565b600081359050612b2f8161483d565b92915050565b600060208284031215612b4757600080fd5b6000612b55848285016127aa565b91505092915050565b60008060408385031215612b7157600080fd5b6000612b7f858286016127aa565b9250506020612b90858286016127aa565b9150509250929050565b600080600080600060a08688031215612bb257600080fd5b6000612bc0888289016127aa565b9550506020612bd1888289016127aa565b945050604086013567ffffffffffffffff811115612bee57600080fd5b612bfa88828901612813565b935050606086013567ffffffffffffffff811115612c1757600080fd5b612c2388828901612813565b925050608086013567ffffffffffffffff811115612c4057600080fd5b612c4c88828901612891565b9150509295509295909350565b600080600080600060a08688031215612c7157600080fd5b6000612c7f888289016127aa565b9550506020612c90888289016127aa565b9450506040612ca188828901612b0b565b9350506060612cb288828901612b0b565b925050608086013567ffffffffffffffff811115612ccf57600080fd5b612cdb88828901612891565b9150509295509295909350565b60008060408385031215612cfb57600080fd5b6000612d09858286016127aa565b9250506020612d1a8582860161283d565b9150509250929050565b600080600060608486031215612d3957600080fd5b6000612d47868287016127aa565b935050602084013567ffffffffffffffff811115612d6457600080fd5b612d7086828701612891565b925050604084013567ffffffffffffffff811115612d8d57600080fd5b612d9986828701612a2b565b9150509250925092565b60008060408385031215612db657600080fd5b6000612dc4858286016127aa565b9250506020612dd585828601612b0b565b9150509250929050565b60008060408385031215612df257600080fd5b600083013567ffffffffffffffff811115612e0c57600080fd5b612e18858286016127bf565b925050602083013567ffffffffffffffff811115612e3557600080fd5b612e4185828601612813565b9150509250929050565b600060208284031215612e5d57600080fd5b6000612e6b84828501612867565b91505092915050565b600060208284031215612e8657600080fd5b6000612e948482850161287c565b91505092915050565b600060208284031215612eaf57600080fd5b600082013567ffffffffffffffff811115612ec957600080fd5b612ed5848285016128bb565b91505092915050565b600060208284031215612ef057600080fd5b600082015167ffffffffffffffff811115612f0a57600080fd5b612f16848285016128e5565b91505092915050565b600060208284031215612f3157600080fd5b600082013567ffffffffffffffff811115612f4b57600080fd5b612f5784828501612a2b565b91505092915050565b600060208284031215612f7257600080fd5b6000612f8084828501612b0b565b91505092915050565b6000612f9583836130c4565b905092915050565b6000612fa983836136ea565b60208301905092915050565b612fbe81613ef5565b82525050565b612fcd81613ef5565b82525050565b6000612fde82613d49565b612fe88185613d8f565b935083602082028501612ffa85613d14565b8060005b8581101561303657848403895281516130178582612f89565b945061302283613d75565b925060208a01995050600181019050612ffe565b50829750879550505050505092915050565b600061305382613d54565b61305d8185613da0565b935061306883613d24565b8060005b838110156130995781516130808882612f9d565b975061308b83613d82565b92505060018101905061306c565b5085935050505092915050565b6130af81613f07565b82525050565b6130be81613f13565b82525050565b60006130cf82613d5f565b6130d98185613db1565b93506130e9818560208601613f9f565b6130f28161412d565b840191505092915050565b600061310882613d5f565b6131128185613dc2565b9350613122818560208601613f9f565b61312b8161412d565b840191505092915050565b600061314182613d6a565b61314b8185613dd3565b935061315b818560208601613f9f565b6131648161412d565b840191505092915050565b600061317a82613d6a565b6131848185613de4565b9350613194818560208601613f9f565b61319d8161412d565b840191505092915050565b60006131b382613d6a565b6131bd8185613df5565b93506131cd818560208601613f9f565b6131d68161412d565b840191505092915050565b60006131ec82613d6a565b6131f68185613e06565b9350613206818560208601613f9f565b80840191505092915050565b6000815461321f81613fd2565b6132298186613e06565b94506001821660008114613244576001811461325557613288565b60ff19831686528186019350613288565b61325e85613d34565b60005b8381101561328057815481890152600182019150602081019050613261565b838801955050505b50505092915050565b600061329e602883613de4565b91506132a98261414b565b604082019050919050565b60006132c1602683613de4565b91506132cc8261419a565b604082019050919050565b60006132e4602a83613de4565b91506132ef826141e9565b604082019050919050565b6000613307602e83613de4565b915061331282614238565b604082019050919050565b600061332a602583613de4565b915061333582614287565b604082019050919050565b600061334d602f83613de4565b9150613358826142d6565b604082019050919050565b6000613370601483613de4565b915061337b82614325565b602082019050919050565b6000613393602a83613de4565b915061339e8261434e565b604082019050919050565b60006133b6600583613e06565b91506133c18261439d565b600582019050919050565b60006133d9601283613df5565b91506133e4826143c6565b602082019050919050565b60006133fc602083613de4565b9150613407826143ef565b602082019050919050565b600061341f602c83613de4565b915061342a82614418565b604082019050919050565b6000613442601883613de4565b915061344d82614467565b602082019050919050565b6000613465603883613de4565b915061347082614490565b604082019050919050565b6000613488602983613de4565b9150613493826144df565b604082019050919050565b60006134ab602983613de4565b91506134b68261452e565b604082019050919050565b60006134ce602883613de4565b91506134d98261457d565b604082019050919050565b60006134f1602183613de4565b91506134fc826145cc565b604082019050919050565b6000613514600e83613df5565b915061351f8261461b565b602082019050919050565b6000613537603483613de4565b915061354282614644565b604082019050919050565b600061355a602183613de4565b915061356582614693565b604082019050919050565b600061357d601383613df5565b9150613588826146e2565b602082019050919050565b60006135a0600183613e06565b91506135ab8261470b565b600182019050919050565b600060608301600083015184820360008601526135d38282613136565b915050602083015184820360208601526135ed8282613136565b915050604083015184820360408601526136078282613136565b9150508091505092915050565b60808201600082015161362a60008501826130b5565b50602082015161363d6020850182612fb5565b5060408201516136506040850182613708565b5060608201516136636060850182613708565b50505050565b6000604083016000830151848203600086015261368682826135b6565b915050602083015184820360208601526136a082826136ad565b9150508091505092915050565b600060a0830160008301516136c56000860182613614565b50602083015184820360808601526136dd8282612fd3565b9150508091505092915050565b6136f381613f69565b82525050565b61370281613f69565b82525050565b61371181613f73565b82525050565b60006137238285613212565b915061372e82613593565b915061373a82846131e1565b9150613745826133a9565b91508190509392505050565b60006020820190506137666000830184612fc4565b92915050565b600060a0820190506137816000830188612fc4565b61378e6020830187612fc4565b81810360408301526137a08186613048565b905081810360608301526137b48185613048565b905081810360808301526137c881846130fd565b90509695505050505050565b600060a0820190506137e96000830188612fc4565b6137f66020830187612fc4565b61380360408301866136f9565b61381060608301856136f9565b818103608083015261382281846130fd565b90509695505050505050565b600060208201905081810360008301526138488184613048565b905092915050565b6000604082019050818103600083015261386a8185613048565b9050818103602083015261387e8184613048565b90509392505050565b600060208201905061389c60008301846130a6565b92915050565b600060208201905081810360008301526138bc818461316f565b905092915050565b600060408201905081810360008301526138de81846131a8565b905081810360208301526138f1816133cc565b905092915050565b6000604082019050818103600083015261391381846131a8565b9050818103602083015261392681613507565b905092915050565b6000604082019050818103600083015261394881846131a8565b9050818103602083015261395b81613570565b905092915050565b6000602082019050818103600083015261397c81613291565b9050919050565b6000602082019050818103600083015261399c816132b4565b9050919050565b600060208201905081810360008301526139bc816132d7565b9050919050565b600060208201905081810360008301526139dc816132fa565b9050919050565b600060208201905081810360008301526139fc8161331d565b9050919050565b60006020820190508181036000830152613a1c81613340565b9050919050565b60006020820190508181036000830152613a3c81613363565b9050919050565b60006020820190508181036000830152613a5c81613386565b9050919050565b60006020820190508181036000830152613a7c816133ef565b9050919050565b60006020820190508181036000830152613a9c81613412565b9050919050565b60006020820190508181036000830152613abc81613435565b9050919050565b60006020820190508181036000830152613adc81613458565b9050919050565b60006020820190508181036000830152613afc8161347b565b9050919050565b60006020820190508181036000830152613b1c8161349e565b9050919050565b60006020820190508181036000830152613b3c816134c1565b9050919050565b60006020820190508181036000830152613b5c816134e4565b9050919050565b60006020820190508181036000830152613b7c8161352a565b9050919050565b60006020820190508181036000830152613b9c8161354d565b9050919050565b60006020820190508181036000830152613bbd8184613669565b905092915050565b6000602082019050613bda60008301846136f9565b92915050565b6000604082019050613bf560008301856136f9565b613c0260208301846136f9565b9392505050565b6000613c13613c24565b9050613c1f8282614004565b919050565b6000604051905090565b600067ffffffffffffffff821115613c4957613c486140dc565b5b602082029050602081019050919050565b600067ffffffffffffffff821115613c7557613c746140dc565b5b602082029050602081019050919050565b600067ffffffffffffffff821115613ca157613ca06140dc565b5b602082029050602081019050919050565b600067ffffffffffffffff821115613ccd57613ccc6140dc565b5b613cd68261412d565b9050602081019050919050565b600067ffffffffffffffff821115613cfe57613cfd6140dc565b5b613d078261412d565b9050602081019050919050565b6000819050602082019050919050565b6000819050602082019050919050565b60008190508160005260206000209050919050565b600081519050919050565b600081519050919050565b600081519050919050565b600081519050919050565b6000602082019050919050565b6000602082019050919050565b600082825260208201905092915050565b600082825260208201905092915050565b600082825260208201905092915050565b600082825260208201905092915050565b600082825260208201905092915050565b600082825260208201905092915050565b600082825260208201905092915050565b600081905092915050565b6000613e1c82613f69565b9150613e2783613f69565b9250827fffffffffffffffffffffffffffffffffffffffffffffffffffffffffffffffff03821115613e5c57613e5b61407e565b5b828201905092915050565b6000613e7282613f69565b9150613e7d83613f69565b9250817fffffffffffffffffffffffffffffffffffffffffffffffffffffffffffffffff0483118215151615613eb657613eb561407e565b5b828202905092915050565b6000613ecc82613f83565b9150613ed783613f83565b925082821015613eea57613ee961407e565b5b828203905092915050565b6000613f0082613f49565b9050919050565b60008115159050919050565b6000819050919050565b60007fffffffff0000000000000000000000000000000000000000000000000000000082169050919050565b600073ffffffffffffffffffffffffffffffffffffffff82169050919050565b6000819050919050565b600063ffffffff82169050919050565b600060ff82169050919050565b82818337600083830152505050565b60005b83811015613fbd578082015181840152602081019050613fa2565b83811115613fcc576000848401525b50505050565b60006002820490506001821680613fea57607f821691505b60208210811415613ffe57613ffd6140ad565b5b50919050565b61400d8261412d565b810181811067ffffffffffffffff8211171561402c5761402b6140dc565b5b80604052505050565b600061404082613f69565b91507fffffffffffffffffffffffffffffffffffffffffffffffffffffffffffffffff8214156140735761407261407e565b5b600182019050919050565b7f4e487b7100000000000000000000000000000000000000000000000000000000600052601160045260246000fd5b7f4e487b7100000000000000000000000000000000000000000000000000000000600052602260045260246000fd5b7f4e487b7100000000000000000000000000000000000000000000000000000000600052604160045260246000fd5b600060033d111561412a5760046000803e61412760005161413e565b90505b90565b6000601f19601f8301169050919050565b60008160e01c9050919050565b7f455243313135353a204552433131353552656365697665722072656a6563746560008201527f6420746f6b656e73000000000000000000000000000000000000000000000000602082015250565b7f4f776e61626c653a206e6577206f776e657220697320746865207a65726f206160008201527f6464726573730000000000000000000000000000000000000000000000000000602082015250565b7f455243313135353a2061646472657373207a65726f206973206e6f742061207660008201527f616c6964206f776e657200000000000000000000000000000000000000000000602082015250565b7f455243313135353a2063616c6c6572206973206e6f7420746f6b656e206f776e60008201527f6572206f7220617070726f766564000000000000000000000000000000000000602082015250565b7f455243313135353a207472616e7366657220746f20746865207a65726f20616460008201527f6472657373000000000000000000000000000000000000000000000000000000602082015250565b7f446f6e617a696f6e6520617373656e74653a2072696368696573746120616c6d60008201527f656e6f203120646f6e617a696f6e650000000000000000000000000000000000602082015250565b7f5472616e73666572206e6f7420616c6c6f776564000000000000000000000000600082015250565b7f455243313135353a20696e73756666696369656e742062616c616e636520666f60008201527f72207472616e7366657200000000000000000000000000000000000000000000602082015250565b7f2e6a736f6e000000000000000000000000000000000000000000000000000000600082015250565b7f22746f74616c446f6e6174696f6e73223a220000000000000000000000000000600082015250565b7f4f776e61626c653a2063616c6c6572206973206e6f7420746865206f776e6572600082015250565b7f50756e74656767696f20696e73756666696369656e74653a207269636869657360008201527f746f20616c6d656e6f2032300000000000000000000000000000000000000000602082015250565b7f496e76616c6964206e756d65726963616c20737472696e670000000000000000600082015250565b7f50756e74692064656c6c6120706174656e746520696e73756666696369656e7460008201527f693a2072696368696573746920616c6d656e6f20333070740000000000000000602082015250565b7f455243313135353a2073657474696e6720617070726f76616c2073746174757360008201527f20666f722073656c660000000000000000000000000000000000000000000000602082015250565b7f455243313135353a206163636f756e747320616e6420696473206c656e67746860008201527f206d69736d617463680000000000000000000000000000000000000000000000602082015250565b7f455243313135353a2069647320616e6420616d6f756e7473206c656e6774682060008201527f6d69736d61746368000000000000000000000000000000000000000000000000602082015250565b7f455243313135353a206d696e7420746f20746865207a65726f2061646472657360008201527f7300000000000000000000000000000000000000000000000000000000000000602082015250565b7f2273616c646f50756e7469223a22000000000000000000000000000000000000600082015250565b7f455243313135353a207472616e7366657220746f206e6f6e2d4552433131353560008201527f526563656976657220696d706c656d656e746572000000000000000000000000602082015250565b7f426164676520726973636174746162696c6520756e6120736f6c6120766f6c7460008201527f6100000000000000000000000000000000000000000000000000000000000000602082015250565b7f22616e6e75616c466f6f747072696e74223a2200000000000000000000000000600082015250565b7f2f00000000000000000000000000000000000000000000000000000000000000600082015250565b600060443d1015614744576147c7565b61474c613c24565b60043d036004823e80513d602482011167ffffffffffffffff821117156147745750506147c7565b808201805167ffffffffffffffff81111561479257505050506147c7565b80602083010160043d0385018111156147af5750505050506147c7565b6147be82602001850186614004565b82955050505050505b90565b6147d381613ef5565b81146147de57600080fd5b50565b6147ea81613f07565b81146147f557600080fd5b50565b61480181613f13565b811461480c57600080fd5b50565b61481881613f1d565b811461482357600080fd5b50565b61482f81613f69565b811461483a57600080fd5b50565b61484681613f73565b811461485157600080fd5b5056fea26469706673582212202be94875ec77cd207df947f27825637457fbe652aac6eda85dc446129e6705b264736f6c63430008040033",
  "linkReferences": {
    "contracts/Claims.sol": {
      "Claims": [
        {
          "length": 20,
          "start": 2542
        },
        {
          "length": 20,
          "start": 2810
        },
        {
          "length": 20,
          "start": 3077
        }
      ]
    }
  },
  "deployedLinkReferences": {
    "contracts/Claims.sol": {
      "Claims": [
        {
          "length": 20,
          "start": 1599
        },
        {
          "length": 20,
          "start": 1867
        },
        {
          "length": 20,
          "start": 2134
        }
      ]
    }
  }
}